:020000040800F2
:1000000030C701208D02000837150008C51400080C
:100010003515000883040008AD1600080000000034
:100020000000000000000000000000003B15000878
:100030009905000800000000391500083D1500086A
:10004000A7020008A7020008A7020008A7020008EC
:10005000A7020008A7020008A7020008A7020008DC
:10006000A7020008A7020008A7020008A7020008CC
:10007000A7020008A7020008A7020008A7020008BC
:10008000A7020008E9040008A7020008A702000868
:10009000A7020008A7020008A7020008A70200089C
:1000A000A7020008A7020008A7020008A70200088C
:1000B000A7020008A7020008A7020008A70200087C
:1000C000A7020008A7020008A7020008A70200086C
:1000D000A7020008A7020008A7020008A70200085C
:1000E000A7020008A7020008A7020008A70200084C
:1000F000A7020008A7020008A7020008A70200083C
:10010000A7020008A7020008A7020008A70200082B
:10011000A7020008A7020008A7020008A70200081B
:10012000A7020008A7020008A7020008A70200080B
:10013000A70200080000000000000000A70200085D
:10014000A7020008A7020008A7020008A7020008EB
:10015000A7020008A7020008A7020008A7020008DB
:10016000A7020008A7020008A7020008A7020008CB
:10017000A7020008A702000800000000000000001D
:10018000A7020008A702000800F002F800F06EF8CD
:100190000AA090E8000C82448344AAF10107DA45E2
:1001A00001D100F063F8AFF2090EBAE80F0013F0C6
:1001B000010F18BFFB1A43F0010318477016000027
:1001C000A016000010F8013B0A4413F0030408BF16
:1001D00010F8014B1D1108BF10F8015B641E05D01B
:1001E00010F8016B641E01F8016BF9D1002D15D0D8
:1001F00010F8014B03F00C030C2BA1EB04040ABF15
:1002000010F8013BA4EB8314A4EB032405F10103D4
:1002100014F8016B5B1E01F8016BF9D5914238BFF0
:1002200010F8013BD1D37047103A24BF78C878C189
:10023000FAD8520724BF30C830C144BF04680C60EC
:10024000704700000023002400250026103A28BF34
:1002500078C1FBD8520728BF30C148BF0B60704738
:100260001FB501F0D1FA1FBD10B510BD00F0CFF8D9
:100270001146FFF7F5FF01F02BFA00F0EDF803B49B
:10028000FFF7F2FF03BC00F0F5F8000009488047D3
:1002900009480047FEE7FEE7FEE7FEE7FEE7FEE768
:1002A000FEE7FEE7FEE7FEE704480549054A064B80
:1002B00070470000D51500088901000830C10120F1
:1002C00030C7012030C3012030C3012053EA020CA3
:1002D00000F069802DE9F04B4FF00006002B1FBFA6
:1002E000B3FA83F503FA05F424FA05F65E4012BF6B
:1002F0001643B2FA82F502FA05F4C5F120051EBFD5
:1003000022FA05FC44EA0C04203556EA044C4FEA74
:10031000144418BF641C4FF000084FF000099042CD
:1003200071EB030C39D3002919BFB1FA81F701FA37
:1003300007F6B0FA80F700FA07F6C7F120071EBFEC
:1003400020FA07FC46EA0C062037B6FBF4FCA7EBC4
:100350000507103F07F01F0BCBF120060CFA0BFB33
:100360002CFA06F644BFB3460026202FA4BF5E46F3
:100370004FF0000B5BEA060C08BF4FF0010B19EBC6
:100380000B09ABFB027C48EB0608C01B06FB02CC4A
:100390000BFB03CC71EB0C01C1E70B460246414657
:1003A0004846BDE8F08B13B54FF000004FF0000158
:1003B000AFF30080BDE81C4070474FF0000200B56D
:1003C000134694469646203922BFA0E80C50A0E878
:1003D0000C50B1F12001BFF4F7AF090728BFA0E826
:1003E0000C5048BF0CC05DF804EB890028BF40F8F2
:1003F000042B08BF704748BF20F8022B11F0804F34
:1004000018BF00F8012B704770477047704775465A
:1004100000F02CF8AE4605006946534620F0070070
:10042000854618B020B5FFF73FFFBDE820404FF0EC
:1004300000064FF000074FF000084FF0000B21F0CE
:100440000701AC46ACE8C009ACE8C009ACE8C0099B
:10045000ACE8C0098D46704710B50446AFF3008084
:100460002046BDE81040FFF70ABF00000048704773
:10047000D0C0012001491820ABBEFEE726000200D3
:100480007047FEE710B5846B204600F0AEF80120FF
:10049000207110BD10B5846B204600F080F801205B
:1004A000207110BD10B5846B206940F004002061FC
:1004B000204600F09CF80120207110BD10B5846B1F
:1004C000206940F004002061204600F06AF8012015
:1004D000207110BD10B5806B00F088F810BD10B50C
:1004E000806B00F05DF810BD014800F06FB90000AE
:1004F00028C0012001681823CAB2103AB2FBF3F2F7
:10050000054B6FF30901032A9B5CC36500D9091DE4
:1005100081650846704700001218000810B50146B2
:1005200000208B698A6A4FF0C07453B1B3F5005F45
:1005300015D072B1012A0CD0022A0AD0032A09D19F
:1005400004E01AB1012A06D0022A03D1C96AC901FE
:1005500000D5012010BDC96AA142FAD010BD002A01
:10056000F7D0012AF2D0022AF3D0032AF3D010BD2B
:1005700030B50468256825F480252560046863602B
:100580008368402B036803D099600068C26030BD67
:100590009A600068C16030BD704772B6FEE7704770
:1005A0007047704770B54379012B1CD00126467106
:1005B0000223037105682B6802F0100440F6FE72F6
:1005C000A2409343D1E900210A43A2401A432A6082
:1005D00001680A68C023A3409A430A60067100219B
:1005E0004171084670BD022070BD7047704770476A
:1005F00070B5040003D02079002510B105E001207A
:1006000070BD6571204600F007F802202071256159
:1006100001202071002070BD70B586B00546142100
:100620006846FFF7CAFE20492868884239D11F482A
:100630000026016841F000510160006800F00050A0
:1006400005901A481038016841F001010160006806
:10065000694600F001000590202000900320CDE9BC
:100660000106134800F036FA134C124820604FF090
:10067000606060604020C4E9020600012061400023
:1006800060618000A0614011E0614FF44030C4E936
:100690000806204600F06AF908B1FFF77EFFEC601B
:1006A000A56306B070BD00000074004040380240F1
:1006B00000000240A060024028C001202DE9F04166
:1006C00004460D461746617900220698012920D07C
:1006D0000126667102212171F5B1D4F80CC03549AB
:1006E000CCF83C10D4F80CC03349CCF84010D4F806
:1006F0000CC03249CCF84C102168D1F800C04CF045
:10070000805CC1F800C090B3042834D0082837D1E9
:1007100034E00220BDE8F081D4F808C02849CCF8C4
:100720003C10D4F808C02749CCF84010D4F808C0D1
:100730002549CCF84C102168D1F800C04CF4805CFD
:10074000C1F800C020B1042805D0082808D105E070
:100750002268083204E022680C3201E0226810327C
:100760002068016841F400510160A0680EE0FFE7D5
:100770002268143204E02268183201E022681C3238
:100780002068016841F000510160E068394600F0DE
:1007900057F90021617120B1216941F00401216103
:1007A000B8E721680A6805F010039E4032430A60EA
:1007B000B0E7000095040008DF040008BD0400084D
:1007C00085040008D5040008A50400082DE9F843B5
:1007D00004464FF00009CDF8009063484FF41651DD
:1007E000A56D0068B0FBF1F72E6894F85C10082046
:1007F00000FA01F131420FD021680A6852070BD587
:100800000A6822F004020A6094F85C108840A8602C
:10081000606D40F00100606594F85C104FF00108D5
:1008200008FA01F0304208D021684969090604D568
:10083000A860606D40F00200606594F85C100420D0
:100840008840304208D021680968890704D5A8602B
:10085000606D40F00400606594F85C1010208840E2
:10086000304218D021680968090714D5A8602068AB
:100870000168490304D50068000308D5A16C07E0AE
:100880000168C90503D4016821F008010160216CE9
:1008900009B12046884794F85C10202088403042F7
:1008A00031D021680968C9062DD5A86094F83500B3
:1008B00005282068016806D0490347D50068000371
:1008C0001DD4616C1CE021F01601016020684169B3
:1008D00021F080014161206C08B9A06C20B1206832
:1008E000016821F00801016094F85C103F20884005
:1008F000A86084F8358084F83490216D1FE0E16BA6
:1009000009B120468847606D00282BD0606DC00774
:1009100014D0052084F835002068016821F0010119
:1009200001600098401C0090B84203D8206800681D
:10093000C007F6D184F8358084F83490E16C002942
:1009400010D001B02046BDE8F04308470168C90552
:10095000D5D4016821F01001016084F8358084F855
:100960003490CCE7BDE8F88310C001202DE9F041B8
:10097000044600F0ADF906465CB1022084F835006B
:10098000002584F834502068016821F001010160DD
:100990000DE00120BDE8F08100F09AF9801B0528E8
:1009A00005D920206065032084F83500F2E720682F
:1009B0000068C007F0D12268116820480140D4E9DE
:1009C00001031843D4E903363343184363691843DA
:1009D000A3691843E3691843236A18430843616A0B
:1009E000042903D1D4E90B1319430843106020688C
:1009F0004069666A20F0070130460E43012704284B
:100A00000CD1A06A0643E06A40B12046FFF786FD9C
:100A100020B14020606584F83570BAE720684661EF
:100A20002046FFF767FD94F85C203F2191408160EC
:100A3000656584F835700020ACE700003F8010F059
:100A40002DE9F0410446866D90F834000025012818
:100A50000DD0012084F8340094F835700020012F67
:100A600007D084F8340002252846BDE8F081022032
:100A7000FBE7022784F8357060652046FFF778FDB4
:100A800094F85C103F208840B0602068016841F015
:100A900016010160206C20B12068016841F0080156
:100AA00001602068016841F001010160DCE700009D
:100AB00070B5044600F00CF90546601C02D00448ED
:100AC0000078044400F004F9401BA042FAD370BD42
:100AD00004C001202DE9F84FDFF8BCA10022012558
:100AE00003264FF00F090AF1040BAAF1040E00BF10
:100AF0000B6805FA02F42340A34270D10F7907F086
:100B00000307012F01D0022F16D187684FEA420850
:100B100006FA08FC27EA0C07D1F80CC00CFA08FC0E
:100B20004CEA070CC0F808C04768A7430C79C4F327
:100B3000001494403C4344600C79E443A4070AD079
:100B4000C4684FEA420C06FA0CF7BC438F6807FAF8
:100B50000CF72743C7600C7904F00304022C12D170
:100B6000D40800EB840CDCF820405707FF0E09FA8C
:100B700007F824EA0804D1F8108008FA07F848EAD0
:100B80000408CCF8208004684FEA420C06FA0CF7FF
:100B9000BC430F7907F0030707FA0CF727430760F8
:100BA0004C6814F4403F70D03C4C276847F48047B1
:100BB0002760246822F0030704F480440094384C32
:100BC00007EB040CDCF8084897074FEA177809FA96
:100BD00008F7BC43334FB84202D1002724E054E069
:100BE000314FB84201D101271EE0304FB84201D148
:100BF000022719E02E4FB84201D1032714E02D4FF0
:100C0000B84201D104270FE02B4FB84201D105278C
:100C10000AE02A4FB84201D1062705E0284FB84222
:100C200001D1072700E0082707FA08F72743CCF887
:100C30000878DAF800405746D1F804C09C435FEAD0
:100C4000CC2C00D51C433C60DBF800405F46D1F85B
:100C500004C09C435FEA8C2C00D51C433C60DEF84A
:100C600000407746D1F804C09C435FEA8C3C00D535
:100C70001C433C60084F083F3C68D1F804C09C43CB
:100C80005FEACC3C00D51C433C60521C102AFFF4A8
:100C90002FAFBDE8F88F0000083C01404438024007
:100CA0000030014000000240000402400008024001
:100CB000000C0240001002400014024000180240E4
:100CC000001C02400AB1816170470904FBE7000083
:100CD000014880687047000004C001200248816814
:100CE000027811448160704704C001200B4810B5A0
:100CF000016841F400710160016841F480610160A4
:100D0000016841F480710160032000F06FF80F204A
:100D100000F006F800F024F8002010BD003C02406E
:100D200070B50D4D04464FF47A712878B1FBF0F0A0
:100D30000A490968B1FBF0F000F0EAFA48B9102C52
:100D400007D200222146501E00F030F800206C60CF
:100D500070BD012070BD000004C0012010C0012042
:100D60000A4808B5016841F480410160006800F458
:100D7000804000900548001F016841F080510160EB
:100D8000006800F08050009008BD00004438024028
:100D9000002809DB00F01F0201219140400980007A
:100DA00000F1E020C0F8001170470000F0B40E4BD5
:100DB0001B680C46C3F30223C3F10705042D00D9B9
:100DC0000425191D072901D2002300E0DB1E01269E
:100DD00006FA05F1491E214099409E40761E1640B4
:100DE0003143F0BC00F063BC0CED00E0064900F0BC
:100DF000070208684FF6FF03184040EA0220034A42
:100E000010430860704700000CED00E00000FA0598
:100E10002DE9F0470E46050065D0DFF81481D8F8BB
:100E20000000F7B200F00700B04207D288F8007067
:100E3000D8F8000000F00700B04254D128683D4CBB
:100E4000810712D5400703D5206840F4E0502060A8
:100E50002878000703D5206840F4604020602068AF
:100E6000A96820F0F000084320602878C0072DD042
:100E7000304968680839012812D0022813D00328A5
:100E800011D00968890700292DDA216821F00301B2
:100E900001432160FFF71CFF814641F2883A0EE0D2
:100EA00009688903EFE709688901ECE7FFF710FF9C
:100EB000A0EB0901514502D90320BDE8F087206865
:100EC000696800F00C00B0EB810FEFD1D8F800108A
:100ED000404601F00701B14207D90770006800F0F1
:100EE0000700B04201D00120E7E72878400705D588
:100EF0002068E96820F4E050084320602878000763
:100F000006D52068296920F4604040EAC1002060CD
:100F100000F018F82168084AC1F30311515CC84079
:100F20000649086006480068FFF7FAFE0020C4E79B
:100F3000003C0240083802401A18000810C0012086
:100F400008C00120154810B5006810F00C021448C4
:100F500013D04110042A0FD0082A0ED10F4C241FA1
:100F60002268236802F03F025B0207D52068C0F3C5
:100F70008810A0FB010106E0084610BD2168C1F3FE
:100F80008811A1FB00010023FFF7A0F92168C1F33C
:100F90000141491C4900B0FBF1F010BD0838024086
:100FA0000024F4002DE9F84F04006ED02078DFF81B
:100FB0004C93C007A9F104054AD009F10400016867
:100FC000C1F38101012908D00068C0F38100022823
:100FD0000AD1D9F80000400206D52868800337D529
:100FE00060680028E1D033E06068B0F5803F10D041
:100FF000B0F5A02F286810D020F480302860286831
:1010000020F4802028606068A8B1FFF761FE0646E2
:101010000DE0286840F48030F4E740F48020286038
:10102000F7E700BFFFF754FE801B642873D82868D9
:101030008003F7D50CE0FFF74BFE064605E000BF46
:10104000FFF746FE801B6428F0D828688003F7D499
:101050002078DFF8AC8280074FF0000A3ED5A74821
:10106000001D016811F00C0F08D00068C0F381006A
:1010700002280BD1D9F80000400207D42868800765
:1010800016D5E068012800D112E033E1E068B8B17C
:101090000120C8F80000FFF71BFE064605E000BF70
:1010A000FFF716FE801B0228C0D828688007F7D5F6
:1010B0002868216920F0F80040EAC10028600DE0AE
:1010C000C8F800A0FFF704FE064604E0FFF700FEA4
:1010D000801B02281FD828688007F7D420780007D3
:1010E00022D5864F87486169703771B1012101604F
:1010F000FFF7EEFD064604E0FFF7EAFD801B02283D
:1011000009D838688007F7D50EE0C0F800A0FFF7CF
:10111000DFFD064605E082E0FFF7DAFD801B0228CE
:101120007DD838688007F7D42078400768D5DFF885
:10113000CCB100270BF13C0BDBF80000C0000BD456
:10114000DBF8001041F08051CBF80010DBF8000014
:10115000012700F0805000906B4E3068C00510D41D
:10116000306840F480703060FFF7B2FD009005E019
:10117000FFF7AEFD0099401A022850D83068C0052C
:10118000F6D55E4EA0686C3601280FD00528306871
:1011900010D020F001003060306820F00400306092
:1011A000A068B8B1FFF794FD00900FE0306840F000
:1011B0000100F4E740F004003060F7E7FFF788FD36
:1011C0000099411A41F28830814266D83068800720
:1011D000F4D50EE0FFF77CFD009007E0FFF778FD07
:1011E0000099411A41F28830814256D83068800710
:1011F000F4D42FB1DBF8001021F08051CBF80010AF
:10120000A069C8B33D49091D0968C1F381010229DC
:101210004AD00228504607D0C8F8600000E03CE001
:10122000FFF756FD04463BE04746C8F86000FFF76D
:101230004FFD064605E000BFFFF74AFD801B022870
:101240002BD828688001F7D4D4E907010843A16AA4
:101250002E4A490802EB0141626A41EA82110843C1
:1012600094F82C1040EA0161C9F80010012038669A
:10127000FFF72EFD044606E03EE000BFFFF728FD25
:10128000001B022809D828688001F7D534E000BF88
:10129000FFF71EFD001B022802D90320BDE8F88FCE
:1012A00028688001F4D427E00128F7D0D9F800009D
:1012B000E26900F4800191421CD1226A00F03F01F2
:1012C000914217D147F6C071626A0140B1EB821FAB
:1012D00010D1A26A4FF0FF3300F4403103EB520209
:1012E000B1EB024F06D194F82C1000F07060B0EB17
:1012F000016F01D00120D1E70020CFE70438024080
:1013000000004742800E4742007000400000FFFF8F
:1013100010B5401EB0F1807F01D3012010BD4FF009
:10132000E02460610F21601700F0C1F90020A06186
:1013300007202061002010BD70B590F83C20012AE4
:1013400032D0012480F83C40022280F83D2003681E
:101350005A689D6822F070060A6832435A60134B3F
:1013600002689A4214D0B2F1804F11D0104B9A42C9
:101370000ED0104B9A420BD00F4B9A4208D00F4B15
:101380009A4205D00E4B9A4202D00E4B9A4204D19B
:10139000496825F080031943916080F83D400021A1
:1013A00080F83C10084670BD022070BD000001406E
:1013B0000004004000080040000C00400004014010
:1013C000004001400018004010B5040003D094F81C
:1013D0003D0010B107E0012010BD002084F83C0062
:1013E000204600F01FF8022084F83D00211D2068EF
:1013F00000F0F8F8012084F8460084F83E0084F8F4
:101400003F0084F8400084F8410084F8420084F8EA
:10141000430084F8440084F8450084F83D0000202F
:1014200010BD000008B500680649884208D106488A
:10143000016841F020010160006800F02000009088
:1014400008BD0000001400404038024090F83D10F4
:10145000012901D001207047022180F83D10006869
:101460001149884214D0B0F1804F11D00F49884201
:101470000ED00F4988420BD00E49884208D00E4941
:10148000884205D00D49884202D00D49884204D1D6
:10149000816801F00701062903D0016841F00101CC
:1014A000016000207047000000000140000400407F
:1014B00000080040000C00400004014000400140D2
:1014C00000180040FEE7000030B587B014216846E0
:1014D000FEF773FF15480024016841F080010160A8
:1014E000016801F080010591016841F0010101608E
:1014F000016801F001010591016841F002010160FC
:1015000000680B4D00F00200059000220F212846D4
:10151000FFF7D8FB0F2000900120CDE901046946B8
:1015200028460394FFF7D6FA07B030BD30380240A2
:1015300000040240FEE7FEE770477047FFF7CEBBAE
:1015400030B593B030216846FEF737FF14210CA860
:10155000FEF733FF1D480025016841F0805101600E
:10156000006800F0805011901948016841F48041F2
:1015700001600068022400F4804011900120039073
:1015800010200490009406940820CDE90750A8206C
:10159000CDE9090405200B906846FFF703FD08B16B
:1015A00072B6FEE70CA90F2081E831004FF4A0507D
:1015B0000F904FF48050109005210CA8FFF728FCE5
:1015C000002801D072B6FEE713B030BD40380240AB
:1015D000007000400248016841F4700101607047EA
:1015E00088ED00E0F0B50268254C264D264E274FC9
:1015F000274B4FF0804CA04209D0604507D0A8424D
:1016000005D0B04203D0B84201D0984204D122F0B4
:10161000700E4A6842EA0E02A0421BD0604519D003
:10162000A84217D0B04215D0B84213D0984211D07A
:10163000184DA8420ED0184DA8420BD0174DA84205
:1016400008D0174DA84205D0164DA84202D0164D1D
:10165000A84203D122F44075CA682A434D6922F09A
:1016600080022A4302608A68C2620A688262A042DB
:1016700001D0984201D10969016301214161F0BDA6
:10168000000001400004004000080040000C004041
:101690000004014000400140004401400048014076
:1016A00000180040001C004000200040FEE7090731
:1016B000090E002804DB00F1E02080F800147047D8
:1016C00000F00F0000F1E02080F8141D70470000CA
:1016D0001CB5FFF70BFBFFF733FFFFF7F5FE4248A2
:1016E0000025016841F40011016000682A4600F4F9
:1016F0000010009029461120FFF758FB1120FFF73A
:1017000047FB3B4900953948019508600846FEF7BC
:101710006FFF08B172B6FEE71420CDE90005102274
:1017200069463348FEF73EFF08B172B6FEE730481F
:10173000009574302F49019501606321C0E90115BE
:101740004B21C16080218161FFF73EFE08B172B676
:10175000FEE72020CDE90005254869467430FFF7F3
:10176000EBFD08B172B6FEE721487430FFF76EFE5C
:1017700008200090204B214A10211D48FEF79EFFB3
:101780001F4C60782178034600FA01F296B2491C9A
:10179000CAB22270002103E001D0491CC9B240083E
:1017A0000028F9D1C1F10400904203DA257043EA20
:1017B00043006070134F012231463846FFF782FA2A
:1017C000F04381B200223846FFF77CFA607832217C
:1017D00010FB01F06080FFF76BF960780728D0D923
:1017E00001206070CDE700003038024000740040F6
:1017F00014C0012000140040F69B010000000020EE
:1018000000C00120000402404FF04070E1EE100AD9
:1018100070470006101600061016000000000000B9
:101820000000010203040607080900005C18000814
:1018300000000020F89B0100C4010008284F0108A7
:1018400000C0012014000000280200083C4F0108DD
:1018500014C001201C070000440200081005818507
:101860008482031010848280807F7E7C7C7A7977EA
:101870007775747503300E76747779787A79797A1A
:101880007879797801110F100D7A7C7D7F808284C0
:1018900084858785853612833530067D7D7B7A7A0F
:1018A0001F1010797A7B7C7D7E7F8080808380838F
:1018B0008381031014848584888888898986888632
:1018C0008486858385858283682101428307613E02
:1018D00023767401400D767575777678787A7B7DFE
:1018E0007F7F27114B200C858687888A8789888788
:1018F000898A4A10068786848383AB337B7B973241
:101900007992100680828183817110058385848499
:101910001F300684838283813D32820E2175227EB0
:101920000110057F7E7D7CAE313910047B7B7D14F8
:10193000127D01527E6E1282471131100D8587880B
:10194000898A89898987878785B5138282A6116EDE
:1019500011FF21E34101137B7CEA11382101328020
:10196000794383846821FF113351E721E4240F7EFA
:101970007E7C7B7877767476747577777727637C4F
:101980007CE0212E12813B116A1552128649268273
:101990002324087F7D79777474731336775621A5D5
:1019A00024068082868787011286971005848684A4
:1019B000850331DF158B510C21E8167DC4140478A2
:1019C0007676BF316C3103240579777877CE31BADA
:1019D000140B7E80818688888B8B8C8C582683F9AB
:1019E00012838E151B137E7D8D1685DC11612542B9
:1019F000150C12845B1508168913250F157A11B47E
:101A0000867F9E11DC20047C7B7B711004747372D2
:101A10000211B11276763101116B451D10068487D3
:101A200086898A6F10048B8B8B4921AA31E431722D
:101A300045961597467C533588227FC6127B5922DE
:101A40007C5E167B3029562192378180C121191185
:101A50003365BB3681ED419816820F200486898953
:101A60006F14058C8A8888532281DC267CF6150742
:101A70001404767776181101167722155E33787B79
:101A80005C2174513F5804828384B810048A8A8B85
:101A9000422A88E92162292D258A31011A7C1313F3
:101AA0007B7A9B78047B7D7DAC35FA6D130345040E
:101AB000157E3D190329A53381829D1004888887EE
:101AC000983688C61A876D196F151F168B1F1B8ACB
:101AD00088DE2F8281880321E5115D1A7A7811B49E
:101AE0001E788B0331B2155E1E7A820319091E8A95
:101AF00014033389860319A64A81F029F211BF1D08
:101B000065034513417415C7192E29CA5A817335C7
:101B10002F467E7E199E1A7A304A74702805757594
:101B20007375781E77EC03527BDD1A8204340489C6
:101B3000888B0E190A11BA12854A1D2E0411A51997
:101B40005D195B1E75BB0319701E795503290E17AD
:101B50007A791B411D49071F808099033DFE0311BF
:101B6000905281875D7503410F45C02D3E0311AD35
:101B70001687BF14058D8E8D8D13316E3D84032D18
:101B800045031102395D19CE21746C0477797B4AC3
:101B9000031DEA031F84841A031E8724031D720495
:101BA000296F228C4025541E8716044A810639ADC0
:101BB000254C154D1676FE2A785D4DB5041D420460
:101BC000119C6538452239971D7F031DED033D9318
:101BD000041D1E0415B91D1B042E8800051D5D047F
:101BE0001DBC031D32031E8395031E88E5043D4E74
:101BF0000315502D300525524E73140311021C0E8F
:101C0000727270706F706F71707476797C67031D7B
:101C10004305112F16895421031A89132DD4032249
:101C200084535680CB299135C136813735B14D73F8
:101C3000042DB7043D7D0435C42D9B043A78D4317E
:101C40007719E02D16053DA304467EBE1B86875FEF
:101C500010048D8B8D03228C031C048B8A8A47050C
:101C60003D8B051D7F051D1D04250C255B4DC40501
:101C700019D2291B252B1D2F04227DAE1DBB051952
:101C8000AF19B51E881D0435C91E83E504119915C9
:101C9000334680CF1DCE033D1F036A7E303D410594
:101CA000158E1C0486868683035F7E7C1203292E94
:101CB00035134E74A1041D880555C419B81D880636
:101CC0001D80051B868567168A1D1DF10515BE251D
:101CD0006B39E021631D6D04255C2D0A0335C3219A
:101CE000BA3DC4037A7FDB1DC2033D68061D46046E
:101CF00029E331973D490439CD5DAB052D280627F1
:101D00008482F12D95031DF40436888411194DF158
:101D1000051D30042D72033DD7062DBD051E74121E
:101D2000073677254D7206255621A2255B1DDA045C
:101D30003A88A84D02069E80650339E14E847903F6
:101D40004A815E3E7E23063D00073F7F7FF80416F2
:101D50007DA929354D9804258E2D4B03416A154FD9
:101D60001C04838685FB0619CB39D42D2804251A3B
:101D7000296D15572900427AA22E737E052DD806AB
:101D80003E7A3D043E7BC0035D54051281E41D7B19
:101D9000051289B029BD1D8D071DAF0635B63D154D
:101DA000071DD00429E559ED327E333E8350033DB3
:101DB0006D065D59065D5A061D25042D7A03192905
:101DC00021014D3F053DF8062D82072D87033D314A
:101DD00006116E29D2356A3E84B4074D0A072E7A61
:101DE000C8042D080731491F747589074D34081A36
:101DF0007F3A1D79052D06071DAF0325853D9D07FB
:101E00003DB3032D4A043E7AB2072D5D072DED0741
:101E1000119E2D82082D8A081D40051D42051D6753
:101E2000085E8847052DF505216F255525192D7D5F
:101E3000032D9B0629763A737A14057478777B5ABA
:101E40002D33041C0488878A2A061A8C6A11EC1D1B
:101E500040081F818410091D5F071E86D2032115CB
:101E600019F01103311B3DBD086DFE063DFF045EF8
:101E700078E80629986A799021D72DC7083D0F097F
:101E80003D35043D0F031D8403100D8E8E8F909100
:101E9000918F918F8F8F8DA64DD50325FB3DEE073A
:101EA000380573717072D721B22E739C063D5509A7
:101EB0003E79B407251D2D4A071D06092D33043D23
:101EC00035041DC4034D70062A7FE65E7E99063DEB
:101ED000E10829A54D32071DD5082E82530411B003
:101EE0002A7AC83DF50641552DFB083D13032DE820
:101EF000075D77031D68093A88252E89BC032513E1
:101F00003A843A11AE2F817E3C052D7A05277375F0
:101F10004911AF11A63D46052D36042DA4071DEA33
:101F2000071DB503113E3D76051D4C032D20043DD4
:101F300058093DC1044DA0074E8307064A821B1D68
:101F4000AF091DBB096A813C15783E8648031D74A4
:101F5000072F807D38092DEC032D570851081D36B9
:101F60000421012E7847051682A71D40071DAD09E3
:101F700021701DD1038DF5062D0F0619B82DD4053E
:101F800019C81DAD0A3D5B098D6B062DC0073D6369
:101F9000083E7BD30921082D850A2DFC066E738B24
:101FA0000A116519E05DD2042E85AF05280D8E90CB
:101FB00091939394939092908D8E331DCB082D59CD
:101FC00006357531402E7285032146477575C0551B
:101FD000C24DF2091D690B2D9A06238E8C032E8D9E
:101FE000F00711EE4D4F053D49053DBE093DF40892
:101FF0002D3908217A6D2607267E7C3677C023731B
:10200000759B1DBB0621563DDE033DB409191A29F7
:10201000FF2D1C044D56064E8AC60A1D6D0819CBAD
:102020001DB3073E811B0A35C25D14033C07717066
:10203000717170701C031DEF0711A31D1203290598
:102040001F868AEE075D94062DB40B1D12032D9298
:10205000033E8191037D990B2D99062DEE083D4499
:102060000B5E7C9B063D38041D500C3DB0053D07C2
:10207000093D8B043DB3072DB5073D7D094D4B0B45
:102080002DC8082D0F091D6A03396B4DE7077E80A7
:102090005C0A6D030C4DC10829352DCA0B3D08069D
:1020A0003D0A075DB60B19FD21964DDB0B3D1C0863
:1020B00041034D14075DD0062D870A1D57081D8268
:1020C0000320058F90908F042107168D8119255DBF
:1020D000C1061D0A073E771F034D360B3D4E073DD7
:1020E000F40C3DC6095DDA0C2E810B0937898A6430
:1020F0001D46072D4A055D1D0411464D04072D8A16
:10210000034D1B043DAF046E801D074A7C251D80D6
:102110000A41024D620931572D240B2D60073D8580
:102120000621012D1F0A3D54081D890C3C04888698
:1021300087EB041E8527031DB00721432D4D0C1D81
:102140005C081D5308136F6E0215C241B735C31DDD
:10215000110C1D78071DA4084DBD042DBA0435C30C
:102160005D820535A32D180D2D56087DEE085D57AF
:10217000085DB00B5E842B0A1D94054E7F9E0B4DAF
:10218000D00A4DE60D3DDC092D5E061DF103116DF3
:1021900015011D29042DCF0A3D3F054D0E081D18C0
:1021A0000C2D48069D05072D100E1DDC0CA280018C
:1021B0004E8213076D7E0D694C5D530C25265678B3
:1021C000C42D000C2DDF0D11692D88031DDC091DA8
:1021D00042034D40033DEC057E7FF70C2D400E5D24
:1021E0007A0A29695E790B073D9A0E399F4D0907D6
:1021F0004DA00812884F2DD5084F86854A0585AF1A
:102200002DDD0B4A7B583E7FA20C3D78095E7D5B3D
:102210000D4D10082D49055D9C051D790B1D2F0DD9
:102220001D90041E833D0D357F1D3E0C5E88F40C11
:102230002D05092D1F0A11AB3DD6065D2D0435C0B5
:102240001D140A4C056F707271EB0D4678554D12D6
:102250000E2DDA041DED0D1DDA0D25BD2DD60E3D1A
:10226000860C3D99072DFB0D1DF40B1DDC051D642F
:102270000F3D170D4D98068D370F89785E7DF40A56
:102280005D8F044DAC053D580D3D9E061D0F09198F
:10229000613288B31D5F0F250A9E81C3085E7FEB04
:1022A000032DC0054D940A6DB90B19316D090E9EB1
:1022B0007FF0083DA5093DB90C2D760E7E786B06A2
:1022C0004D1D041D4A0A15C13DEE0C1D7F0E368BB7
:1022D000151D7B103DC2062DF40D3DC2034D650F4B
:1022E0006E79F5072DED0D3DEC0D4E7D99081D9194
:1022F000062804868885E12D030D4687BF151D6DD0
:10230000260B35B06D7C045E7B250E1D2D0B4E7E9D
:10231000E0103D89041D540D3DDD093DE10A4D7F6E
:102320000A1D54081D0507378784AD2E88DF032159
:102330005E1D4E054D4D053E88D0083D4E0E4D08A4
:10234000093DB1072D410515C13D46052DB4072DA9
:10235000BC105E7E6E042DCD032DAE0F5DDB0B6FCA
:1023600084859D101D6D0731031DBA0F4E83850AAC
:102370004D82033D35034D59107DA30D35A95D7E7A
:10238000034DFB0C2D080955C03D170F4E837109F5
:102390001D220A1E8A2E0D11A33D0C114DF2102D87
:1023A000DD106D340C2D9E0B3D35057E7FFF0D4DF0
:1023B0001C0A29402D970D2D2304318C1D4D054EEF
:1023C0007D830E45423D27075E7B7E091D20102D33
:1023D0001C091D41103D850A1D02074D4C0E3D6A2A
:1023E0000B3DE2045D0B122D60073D420E4D3B0399
:1023F0004DE90F3D920E2972238688B15E8A8C0AC0
:102400004D4C0D2D550E5E7F600F4DD60C3DA71126
:10241000550F51C53D960C3E7A96123D680E2D82A1
:102420000F667EC11D560D2D6C101D2D0B115B2DE1
:10243000BF08296C328C682E88C7091D490C6DA114
:102440000D3D00104DC708110125C31E7246051D24
:102450006E11467CC04E8581032D3D073D9B0D1DB1
:102460000A112D0C0B15235E8195062D98034D8DB9
:102470000A4D8003319C25274D51122D2C033DD947
:10248000103DD207367C114DCF10212469D44D74F4
:102490000715BE2DD00F1DEB052D51063D000B4637
:1024A0008155527D413D0303467C42415D45DE3D01
:1024B0002E041D4C09618A2D4C094D21077DAA105F
:1024C0007E7C0A034D5C041D47052DCE082DD211DC
:1024D0003D070C5D2C134E7EE8055D4D0E3D210A37
:1024E0003D77034E7D000551012D43055DE30B4211
:1024F00089B14E85FE0555C32D47142DCA034DEFF6
:102500000D2D72124D8103627F464D660C25102DF4
:1025100028105DDF0A51D959CC3D21112DD8034D2A
:1025200096045D7F032DF8121D9A063E81C8083D72
:10253000B8093D10091D630F1C09716F71716E722E
:10254000716F010D2D000D4DAA0715A115B229AC13
:102550004D83034D590A3E8424041DEA132D4E0871
:102560003D020735C12DDE113DB7048DD8135DDD69
:10257000134D420E510539E339D63D7E125D7F0978
:102580001DE00B1D77102DC50831B855556E8241E1
:10259000102DCB04467B4D3D5C0D2F7D7F56065E96
:1025A0007F34036E7FA5143D7D032D000F25C38D61
:1025B0005F1331717E7C04052D86101D10102D5582
:1025C0000D2D01143DF0141DDC0A4DBE155DEB050B
:1025D0002D0E105E77A8073D260441C05DEB146DFB
:1025E000D90D3DE7046D43051689C5414F4DE709F7
:1025F00049A73D850555A1927D015E7C950D7D64C1
:10260000074D4C152DDF051D3C0D1D73083DDE03E8
:102610002DBE0F1DA4051DDC122DEC054D74108D73
:10262000450D8D4D0E1D1C111D8C0A2D8D0A1D3D55
:102630000B1D46126E786C0941E62D70091D690F5D
:1026400029005D41053DC80B4D17112D7F034D43FA
:10265000084E7F380839B165B349724D020549C348
:102660004D53033DD4116F7B7DF9051D080E21B636
:102670002DA5071D7E091D070E6E87A9163D55085D
:102680004D66164A7AB4454F415B5E7FD10436826F
:10269000902DA30A1D860325C81D0F162D51175D09
:1026A00084054E7CD6053D49126DE2145E832317E6
:1026B0002DBF152D51055D7F173D75053D68094DF1
:1026C000E705496A1D82031D91115F7C7D51091D3B
:1026D000640F2D3A063E85EB0435BC2DC4082D68E9
:1026E000062D62134F828255104D7E051DA0133DAD
:1026F000800C89405DC9034E7DA507211F1D5C1418
:102700004DF5044D0217350C2D6509491A4DE110A0
:102710004D47134D89083D380A1DA2153D4C074D04
:10272000E5122D600F1D620F3DFD0C2DA2147E7A67
:1027300053132D59111D8C153D8B154D8F0A3E8558
:10274000640F1DAE076DAA143D7C047E7FA7113D6A
:10275000260375CC4D36065DBF072D9403467EE9F2
:102760004D69128D8B0C3D921835C231035D970671
:102770002D87044D070A3D2A064E7A91152DB61570
:102780001D72047DBE081DFA072D76122DFF063E30
:1027900081D00A3D01174E8544106E803B072D0500
:1027A000144DFF1561943D2D163DB0124E83A112BC
:1027B0003E7F6B093D38033DBF083D861145C58D01
:1027C000AC1618048084802A1DB4032D84033D8632
:1027D000052D66083E8968163DD3094D19175932F3
:1027E0004DAE144D480539B2150C7F7E80950B49CE
:1027F0002B1D5F045D640541951DBD063E86E10508
:102800002D39034E8B910F4D0D0C5E85D00D3D6B18
:102810000E4F7C7CDA122D15113E7219113D1D11DF
:102820002D420B3DD2032D0F0E1DF70E2DEA074D45
:1028300049152DE4121D8E0A2DCD083D55194DA9BF
:102840000465983D3414552A4DB6087D24193DB2CF
:10285000064D84084D210D957D45C12DDC0B7E86EE
:10286000990B2D2A045D2B0B9E7CFC083DE7147E02
:1028700077691A4D49132DB4194E8203073DE916A5
:102880002DAF182DD9062DCB134DED05295D5DB16A
:10289000034DE4059D6A183E8274143D77158E82BF
:1028A000F0153D72097D850A3D80188E7E921A2DA5
:1028B000BA102D900D1DE9045E88E90B1D55134ECD
:1028C0008775125E831D125E7EC70C6E7A890E5D5F
:1028D000331A41B53DEC092D03075D1608967C15AA
:1028E0001D0A115D27183D73173D7A0A2D66076E84
:1028F00088A4052DED0A4E805E0F2D13104DBA17DA
:102900003D781035CC6D4A0C4DF50E2D22111DBCB5
:10291000177DC4033D08073D4B075E83360C2E7EB2
:1029200092145D56164D3A0439B75E7A3A06567FD0
:10293000674DC40E5D330AF10125141D660739CBBE
:102940002D60146E85C2083D28193D28063E77CCBF
:10295000113DDC144DFA0EB14A35553D64165D4605
:1029600007396C5DC71B6D4D093D5F0A5E799C0898
:10297000918A4DF00A5D7D0C7DF6086E7B5F08BD87
:102980002C042D0D132DA1054DD2092DE6191DE89E
:10299000132DDC0B1D8E047E81040E3D50064D3739
:1029A0000D5D6F124D871B6DF10C69CD4D4319699B
:1029B000D45D03111E81D8053DC00D1D46051D4285
:1029C0000A2D380A1D9E042D0B0C210A6D1E085D70
:1029D000090E3DCF0F5D530E2D89032DFB133D05D1
:1029E0000731B51DF40E3DE7054F898BDB113D76B0
:1029F000096D360D8E80580B5D81034DEC0D4DD069
:102A00001245C07DA30D3D6E1B6D5B0C69A96DE980
:102A1000082D20163E85871A2D69073D27094D8010
:102A20000A4D6F081D350B1C127D7C787673706F14
:102A30006C6C6B6C6C6E70737479D5191DBE1A2D2D
:102A400036151C0483807D411A1D9B1A10C2797DA6
:102A500080868E93989FA4A6A9AAA5A39D948D84F1
:102A600079726B64605E5D6061676E767E848E9461
:102A7000979B9B99969088817A7268635D585755A9
:102A800058595F676F78818B93999FA1A1A19A9400
:102A90008C81786E655F5859595C61686F7B858F52
:102AA00098A3A9AEB1B1AEA9A0978B7F73695F5807
:102AB000525254555E67727D87959FA7ADB1B0AFF6
:102AC000A9A39B90857B706760585758585F6670C4
:102AD00079839098A0A7ABACA9A29B9183786D60F5
:102AE00059544E5052565F6973808C97A3AAB0B464
:102AF000B3AFAA9F94877A6C60565049484A4E56A5
:102B0000606B78848F9BA1A8AAAAA7A19B90841927
:102B1000104A58514C4A4C51585F6E7986909DA589
:102B2000ACB0B0ADA8A093897E6F675F5955565879
:102B30005E67717C8A98A2AFB9BEC0C2BDB7ADA0B6
:102B4000938374675A504A4646494F57616E7A8656
:102B50008F989CA2A19F9B948B82764B302C524ED7
:102B60004D4F525D6774828F9EA9B5BCC2C0C0BB79
:102B7000AFA79B8D7E756A605C5B585E646B7680E8
:102B80008B96A1A7AEB1B0AEA99614325F554C4654
:102B9000444549505966737F8C939EA4A5A7A5A070
:102BA000988F84796C6158504A49494D555D6875D4
:102BB0007F8D98A0A8ADAFA9A89F948B7E13101805
:102BC000595756595E66717B86949FA8B1B6B9B8BD
:102BD000B6B0A79C9083777E100D545151565C6619
:102BE000707B85919A9F4A11E01417877C70645816
:102BF00050494543474A525C6874808B979FA6A909
:102C0000A92C100493887D4B165C771013626873AF
:102C10007F8B97A1ADB2B9BBBAB6B1A79E90854BD9
:102C2000140959534F515459636E2C142997A0A17C
:102C3000A7A5A29C958A8074685E554D4947484E69
:102C400055606C798595A0A9B1B7B7B5B0A79E912D
:102C500084796E655E90200459626B631021A1A98E
:102C6000AFB3B2AFABA0968B7D70645A524D4B4D53
:102C70005158636F7B88939EA6ACAFAFACA7192069
:102C800019807469625A5656575A626B76828B99CC
:102C9000A3A8B0B2AFAEA69E93B0175E57F4100EC5
:102CA000595F6A747F8B969FA5AAA8AAA47D101D60
:102CB0007C72665A524B4747494F56606C77838CFB
:102CC000969D9FA1A09C968D82796E64AD380D4C27
:102CD0004C4F535D66727E8896A0A83F481A9F9716
:102CE0008B81766E66615E5F61666E77828E97A27B
:102CF000ACB1B6B7B5B1A80D13574FC814114C52AB
:102D000059657079868E969B9D9B9B968F8712380E
:102D100034605A55524F5559606C788392A0A9B4CB
:102D2000BCC0C0BDB8AFA29A8D8078706866656679
:102D30006B7177838D96A2AAB0B5B8B6B1A9A196EA
:102D4000887B6F613F18184F576068758188939A28
:102D50009EA0A09B978F857C70675E56514D0D2C71
:102D6000125B646E7B87939CA6ACAEAFA9A59C91C9
:102D7000867D08031B5B590C1006747F87959EAEF9
:102D8000142DB6B4B0ABA3968C7F74675F575150C7
:102D900051555A636B767E868F95979A99938F8853
:102DA0007E74685F564F484645474C535D67AB108D
:102DB0000C949FA5A9A8A7A49A948B81952026641A
:102DC0006261646A707A848F99A4ADB3BABBBAB8F1
:102DD000B0A79D8F84776B6158555252575D646ED2
:102DE00077818B909630109C9991877F746860579B
:102DF000514E4C4E535896181D9EA6ADB0B0AEA77E
:102E0000A1968C81766C645E5A5A5B60666F798499
:102E10008C98A2A7AFA32C04A8A096070315901620
:102E2000531328196A737F88939BA2A6A9A8A6A109
:102E30009891877B72686058555353588B140A8455
:102E40009199A0A6A8A8A39F911015776E655D58CB
:102E50005555575C636B757D8A949BA5A9ACADFAFB
:102E60001C0593887C7252031DCE031413595F68AE
:102E7000707B828D969BA1A0A3A09A958D8179F4F9
:102E8000180C58515353565F67727E87942620075B
:102E9000B0B0AFA8A39CFD2C306C67646064686E12
:102EA000768087949DA6ADB1B2B3AFA7A094867B80
:102EB0006F6359514D4A494E5359636D7480888CE4
:102EC00094979796928B847C32043416534F4F51CB
:102ED000575F6974828D99A4ABB2B5B6B2AFA89FA3
:102EE000962D1366644B2815747E85909A9FA8AC26
:102EF000AEADA8A1988F82766B605850A315C21012
:102F00000D737C858B9397999997938D854B100FB3
:102F1000605A534F5051565E67737D88939CC8101A
:102F20000FACAAA59E968C837A706B6563606396DE
:102F3000167FDA1005A5ACB1B1961AA27118067702
:102F40006D635D59D51F5E65FC04100D858D9397EB
:102F50009798948F8880776CAE1C064C4848484FF1
:102F600098041C2574818B949EA3A6A9A7A29F9761
:102F700090887F78726E6B6B6D70798188969FA94F
:102F8000B0B8BDBEBCB7B1A6CF031C0A7A6F6660ED
:102F90005958595A602D05200B80869095979B9A19
:102FA00096938B1728045D5550EE1C0D59656F7B69
:102FB000868F99A1A5A8A9A6E9033A8A0D1C0A60E3
:102FC0006061666C737C878F52031013AEAFAEA93D
:102FD000A49C91897E736C655F5C5B5D6066B01CD0
:102FE000088691989EA1A3A43A03178E86C2200D4D
:102FF000615B5757585C636A717D878F191C04A306
:103000009F99C9041C16797068615D5A585B5F63AB
:103010006C747D889199A2A5A8A8A29704281B8703
:103020007C746B645F595A5B5C63696F7A828892C7
:10303000969B9C9C97948D837C0C18045351500D47
:103040001C0467717913051C069FA2A7A8A5650437
:1030500018128D837A756E696766676C70798089DE
:10306000939CA20C1C05AAA59F959C0315141806F9
:103070005551504F524011E21C04858E926519182B
:103080000B8E8880786F665F585652251C076770D4
:103090007A838F99FA042806B0AFADA9A0BE1C10A0
:1030A00078706C6A67696E727A808B949CA1A9F4BF
:1030B000052804A59F973F1004676059C81C1C5938
:1030C0006167707780888F94989C9B98958F887F94
:1030D000746C655E5958575A5F67020410138A93DF
:1030E0009CA3A7AAABA8A39E978E867D76706B69DA
:1030F0004B1C04737B8464042D0603142EAFADA611
:103100009F968C82796F68605D5C5C5E63687076A8
:103110007F848C91939696928C867E746B615752C5
:103120004D4A4A4D52576269747F14540E9FA2A5AE
:10313000A2A09B948C867C77716BC22805949EA577
:10314000AE702D39031F8C8108031C0E6059595A2B
:103150005C60666D747A84898D461A2C05908B8527
:103160007BD4061C0F504D4C4C50525C646D7781E3
:103170008A93989D0310049E9B9566100A766F694A
:1031800063616263686FC61C07909AA1A5A9AB0E24
:10319000061C04998E870603100666615F5D5F1A40
:1031A00029571695AA20089F9E99938B8278FA1426
:1031B000075858585D63692D14068B93989C9F910E
:1031C0001C14908B827A726B655F5E5F60666B74B5
:1031D0007C848F98A032041806AAA7A09C94412C46
:1031E00007726B66636163CA041C0781888F979BB3
:1031F0009FB0041C1098908780776D665F5A57596E
:10320000595E656C980418168F999EA2A6A7A2A174
:103210009C938C857C76706C686A6D6F783D1C061B
:10322000999EA7AAAD060328059F978E853F4E5C01
:1032300085072C0D6C747C838B90949395928C876E
:103240002A0513605D951F5A619D071809808D94AA
:103250009BA2A5A9A7A3280D958C847D746F6B678D
:1032600067696B72D31C06979CA0A1A20004180486
:103270008F867D572D33041DD70612644B12824B67
:10328000180A9696949088837B736C701C06585924
:10329000585F652E051C1D8690989CA1A4A2A09D38
:1032A0009691888079736C686666696C707A828B97
:1032B000939BA196041804A8A49DA3240A7D746C72
:1032C00064605C5A5C5D471C0A7F858B9194939384
:1032D0009188190410126B635957524F5153575E1E
:1032E000677079828D959A4B1C0AA49F99958E855B
:1032F000807A7683091004747B80E01E9F90051D00
:1033000064041808ACA59D948982780D1B5E5D0D40
:103310001C0E676F757B85898D92928F8D8880C911
:10332000081C06625C57535114051804616970410A
:103330001407949A9DA1A19E781C118A807B746FBA
:103340006C686B6D6F777D858C959D650817A9A955
:10335000C21D0304240578706967771A69A21C09E5
:10336000878F949B9E9F9E9BFF03452D2E5B6B0337
:10337000280869737A83889197BC2E940803100BF0
:10338000726865625E6063676D734C300A969DA0DB
:10339000A6A7A6A29E98331D14053F646453031A82
:1033A00085ED140E9B9C9B97918B837B726B635E68
:1033B0005A8F180D5D6469717B838B94989E9FA0D2
:1033C0002610148E868078736E6B696B6C71787EB4
:1033D000858E949BA1A54A3C04A09A91E8031133E1
:1033E0002406585B5C6167771E88EB1C1C0D918E70
:1033F00089847E766E68615E5959E7032C06687091
:103400007880873304140EA2A4A29C999288837CAE
:1034100074706C6B761C09737C818791969CA08577
:10342000072D3A07140780776F69605E7711C82807
:103430000F70787F878E9397989896918C857FD41C
:103440001F605F8507226CE01C0692989BA1A2B8C2
:103450000721FB127A4B10096C6B6F72787F848E98
:10346000E01C07A7A9A7A8A49E59061B8178A32C36
:103470001364616364686F747A83878C919293910B
:103480008C8982580A1C075C5955525558B2081C41
:103490000B717A808A9196999E9E9CE9031C058AFD
:1034A000837D798B26140474767C5B2696761EAC1D
:1034B0001A041DB004280B898077716964615F5F0D
:1034C00062EF1C047E8386871D24048D8A835C1D25
:1034D000ED061804575658EE14046B737B77279645
:1034E00099461DF605319618136B6C6E71777D84C5
:1034F0008B91999CA0A3A1A09D9891BB1D9D032E8B
:10350000643903266ADD19A2140998999796918B5C
:10351000857D2D1C05635F5D5E9D032C0A6E757CA9
:10352000818A909398988B061A86A21F6D6733083C
:103530002C04686D732B051F999C31043804A4A0DA
:103540009A261F756F7E041404686B7075140587C6
:103550008F93962B13938D313DB5031C095A5D5EF5
:1035600062676C757B0603181196989B9898958DE9
:103570008B847E7874706E6E6EA41281E22E9B39FD
:103580000B1F9F9C0603200C827B746C6860605E3E
:103590005F6263E12C0A84888D8F908E8C8783DF35
:1035A0000417666276293F1DA9051D6C031DE803FB
:1035B0001F9E9B880B1407827C77726F6D771006B5
:1035C000777D838890F824109D9D9897938C867FB3
:1035D00077716864615E5DAA1D61051C07878D9126
:1035E00094969591051E82FF03280F6B66656363B1
:1035F00067696F747B83899196BC139C983315C25D
:1036000012729618067174798186D32E9F58062CF3
:10361000069E9A928E86A9052A68A311E21C077B52
:1036200080858B8C8F3A1F1C05847D78701A0C1452
:10363000075C5A58595C607724097A82879094977E
:10364000999A463F8782FD281C0D77797E81899063
:10365000939CA0A2A7A7BE0A2C089C978F8881796B
:103660007202081362634C15E01E83BB0D2C0688A2
:1036700085807B76EC061D520B135A5D4B1D1006A0
:103680001DF5052C099798999893908C83CE032D5E
:1036900076251004777C829619BB1C05A0A2A19BFD
:1036A000670C1687DB28066E6B6867695714058000
:1036B000858D92C21D6504138784E12008686663C6
:1036C000625F6466631E8106031007949592928E72
:1036D00087B11D9C071C066868696D71C90C368B23
:1036E000441DE80315451C068A817D7773180D1467
:1036F000076C6F74787D82752406949493928EA7DC
:103700001D9B0319EE1E60B20810056F747C804B80
:10371000300595969693E02E78FC1B1C0672747A01
:103720007D8148041C07979B9D9F9E9D2103151634
:10373000117E1C0C6764636466696F73797F818591
:103740001A1C098C8C8785827B7772E00413636472
:10375000181E6E9A042D51031D6C072A9859238157
:103760007BE12C06707076797EB3031404949897ED
:10377000C11C05908A827E8906300767616160619D
:103780006433500B868B909093908F8C8881C81CEB
:103790000568686E7205032A88A21E994D081008F4
:1037A0008F89827E7974724A1C0B73777C81858C39
:1037B00092939A9C090B2DB20829411D5F0519BDF2
:1037C0003C056C7074797C281805888782813B15CC
:1037D000D82C0E605F5E5E61646870757C84888F33
:1037E000E8031F9794A0032E8405272DA0211C0415
:1037F000878D9056061C07A1A3A5A5A29F1B0410A8
:1038000009897F7B736E6A6665C92C076C71767B4C
:103810007F80B72A1682C2514B4C086061636B707F
:10382000777E52032E9934041C0588837E7BD61D37
:10383000180477797C3B29A229BB1E9C93091C04A0
:103840008481794006180469676A571C0879808466
:10385000898E8F9191051F8A84B4031E6F5E051EA9
:103860006332041F6B7153032E84F31F11F9380464
:10387000857F7BEC226CC53C047E838A2C05100876
:103880009D9C9897918C87CC1805736F6E6DBD1CAD
:1038900008777D82848A8D8D9F23178887D821970A
:1038A000154516629019BC2F848ABF232C068E8B77
:1038B0008883800D0F1DAE161C04767A7D6F0A2D4D
:1038C00039032E9CAA051F8F8A9D032C09726E69ED
:1038D000686768686D44062682C22DE923155C1D61
:1038E00038072267182E739B03190B239B9B321CEE
:1038F000078B85817B7874FA23140474767AF11827
:10390000048D8E94251D1B081688604D38031C04F9
:1039100064686C8004200482858CC818048E8A84B4
:103920003E1E7396041F6B6B6C031C047A7F852309
:1039300003357616902B127F4B2DBB291C05797E03
:1039400080879504180897989A9A9795927125AC54
:10395000117F10056A6B6E72672E80332523878373
:10396000951D82071DCE031D8A061A6E701C0683E4
:103970008B8F94963B0B1D39032F878666191D7D0F
:1039800026138186152698761FA09F4D08138C85D7
:10399000E111C91C08666668696C7274F10F1DEF4D
:1039A000211D692511DF1E6B9A0311011D8B06195C
:1039B000591A85592E97860B14058D8B8682C22D38
:1039C000ED20167D412C048F90975D051A9B711D8B
:1039D0003F061E77EF0A1E694E081C046E7578A01C
:1039E000033E871223238580AD1E69D5061D610D18
:1039F000152D1C087C8183898C8B8E2F251E856755
:103A0000101D351F1D671D31E11E8CE603169945FB
:103A10003A99261E7F42252D811D1277672E82211D
:103A20002010048B8B874B1B78720D1DE90B2F66C2
:103A3000697E0414067F84898C8D4511DF2F827F77
:103A4000FD141DEE1B1C057E80868A760564049A93
:103A5000999DC225AB3B6C6B0E2E7C2A2D1DCC2470
:103A60001D2B272E7BE5031807686969676D6F407A
:103A70002C05828A8E93660C15771389834B2D58FB
:103A80002512774C1C0885898C8F9292936B0311B9
:103A9000F831C9290C1D22072D1B111E8A00261181
:103AA000973806847F7B76738A1D78051F7C814D4D
:103AB000041F909564041A8F272F7C794224190BD8
:103AC0003A7E572C059A9A9D9D7F0C1E8401083DD5
:103AD000F9042D190415F535122C048B88822F0456
:103AE0001C0464605DE0081F6067F90C1F8991CFBA
:103AF000071C06A8A6A29F9901041D2B051DA90558
:103B00001DA40E1C0678848E97A046111C09B3B222
:103B1000ADAAA19890832E111C06635E5C5D5F9632
:103B2000041A76A21D4A1F1A87D01D82031C05673E
:103B3000645F5EBB061C0664676E757BBB062D0E5C
:103B4000063E9C46052C068684817D7CCA2B100A85
:103B50007B7C808086898B9091FB1A977340048FC1
:103B60008B87FD3D7A281F777A13121D361D1D0C99
:103B700015155F100579746E69514D0B071E7D7721
:103B80000E213419D94E8617091E66F9091F73795B
:103B9000A3072DF9091C05A3A19D9BA30B1C04825F
:103BA0007D77C4282675F32D6A033F908CDF0419B6
:103BB000591C0463615FC9042DB20425911DE517EA
:103BC0001D122A3D2A2A2D92252E91760419E91DCF
:103BD00037071D040319B81E7D50308D53135D1532
:103BE000157D1F152D29151E73AB121D062F1C07E1
:103BF00085898B8F9193AF05100693908E8B86CA23
:103C00002E7800243C0676797B8081812C1C058BE4
:103C10008A86806D0715F71D2F05200F6C71737B49
:103C200080838B8D8F92918E8D89E03DB7074E6991
:103C300047051DB10C2C0A9595918F8D85837F7A50
:103C400084031275453F868988062E995D052F816C
:103C50007DE304390C1C0471757AD2292D69131E79
:103C600085CB031DD9053F6562D206100871747DAE
:103C700082868D9090180492918D263D7F131D3879
:103C80002D157019E91DBF091D81031F98951F0788
:103C90002DE7035DC8272DEC1C2D15192DC62B1DF6
:103CA000000321AA2766665B152B2C057A7E818589
:103CB00081222E8E452D2DBA2F1D63271E82CA2DDF
:103CC0001E88C5261E93530B1295F61D54031E7CA9
:103CD0004E081D46243E71CD03190E1C08868987A7
:103CE00083827E7AE70B1E69A8051E6360051D119D
:103CF000062A82721F8D8D6A2E3D84031DAD1B1F07
:103D000072759F071D84033DF3053DB1042C0483A8
:103D10007E798B0614056F6F7173433D25321DA8A4
:103D200031112F2672291D06031D7D041DF2061D6B
:103D300023283E875C211D0D1C2DD1221F8281EA84
:103D4000161F8C90DF081404989B992D339492FDD4
:103D50003E7D442D4D42302DDB1E5D13311E70AE75
:103D6000085C076D6D6E727577E7031DD42C128C9D
:103D7000DE3DB22B4DD12239152D2B05178C8945EF
:103D800011CA2E74A1211D35042D1A042DB52B1D29
:103D9000E62B19252D30042DFB261F747887061974
:103DA000D518078C8E8D8C8C89EB3F7E7BCE037E65
:103DB000754A043D512A21491D24062E6B3B0B2FC9
:103DC0006F70EC032D75321D4728250F1C076E6C94
:103DD00069696A6AE6035A773B1C048E8F8FEB038E
:103DE0002DA0242DDE2F2A8A671E97CD031F9E9EAD
:103DF00052072F9691760A1D4E154DFF232DF3295C
:103E00003DAF2D197D1E724F0B15C11C04656767F0
:103E1000430E1D9D031C0983898D8D919290910AFB
:103E2000034F8A87D2322404818487C02E96520B96
:103E30001E950F061E83BC06159025761B7478D43C
:103E40002D00191D162A2F7E7AED061DAF042D8038
:103E50000C380473787CD231911DF7172DA71A3DC9
:103E6000C42C190C2D0103190B1D3B031C0589865D
:103E70008280A8325D64303E7C702A1DC427237C7A
:103E80007BE145C21E6AF915254711661DF3254DD4
:103E9000FC282D14201DC320140688888E9192C4FE
:103EA00015C22C0495938F23071DBC293E788D25C0
:103EB0006DE7271DD732277D7AC32C076E6C6D6E98
:103EC00070722E161A84A12DE72F15944C04807E53
:103ED0007B9E2A1DEB071A7FBA3E88C0311DC61B88
:103EE0002DCF0B2DF00A1D30091D05082D52074E50
:103EF0008EDD053C047D7B772E0515C229561131D8
:103F000011012D110A3E7FF62B2D34081DE4031CF0
:103F10000588888D8D4B3035C31D6A0719A21E6E2A
:103F2000100A3C04757878FF2B1DC1342D35075DD0
:103F3000D8165163390E19401D3F3221B61D8E1916
:103F40001F8686D8053D36032DC2097E8F8C063D1F
:103F50003D2911813E79211F1DA2292DD525126FE2
:103F6000AD1D730A21E02E836D031E9010061F9174
:103F70008F37083E87A5311DA03222874E1DEA03E8
:103F80001C0493909068081E829A081D4E081D75A7
:103F90000E2276CA1D91251DAB27167F2B1C04739C
:103FA000716EE8073F696C8A0625142DF4312C04E4
:103FB0008885818E052D892E11F73A830E1D3404D4
:103FC0003D98081E86C5282DDC342DC422192A2DC3
:103FD000E41F1D9E07190C5A73A32E6B9D032DA77A
:103FE000052D1E2B3D011A3D79332D20292F838766
:103FF000300C1D0D05129597268E602E7ECA042D5D
:10400000542E1D24335DC9282E7C05181C046F6EA8
:104010006A080B4C05686C6F71CF033D9A2E1C0526
:1040200088868281E32F2D60261DA0321E81260600
:104030001D290521F81D97082681F72D591C2D6291
:104040000423888AFC2C048F8C8A37183E79B008A8
:104050003D2F042E84271E2D492F2E87A1233D7727
:1040600019198621181E87BB3015C11C048B898441
:10407000C32A3D4A352DDB342DFA313DC01B1D7658
:10408000292DD92C3D0E292DCB2A514E2D4E0821FC
:10409000363DE2292D67042D462F1E8CBC062DC10E
:1040A00005368EC22DB0041DB80B3DCF1819F22D68
:1040B000F530114A1D050B1C056D6B686AE7031D81
:1040C000CC0C1C047D8085B6071D2E2A1DB9072D3A
:1040D000022D29EF1D2D1919EF1D480815D7190CB0
:1040E0004A8ABB35C1398B1DA0261DD82511C51D97
:1040F000D809190D6F6D6E12051DC82F3D8B322D1D
:10410000A4352D281E2D712B1DF7081D120D1D1213
:104110002E1D8F2A1D2A0A3DA52B4DB41F2D3C2E86
:104120003D692E1D75281D18071C04706E6D5A12EE
:1041300029A51D7E041DBC2E3E810B292D53213D3A
:104140000D1C1DD7305E86DA051D78092DDC054D66
:1041500046052D7D1C1D3F292D81331DD42E1DB7F5
:10416000334E7FC81919A321F62F7D80650C1D974A
:104170002E1D540325C34E80E22B5B8186B939572F
:104180001685DA3D1B071D3603292A2D742D1D4087
:104190001C114B219919BA1D35071DA2292DE82E96
:1041A0003DE11A3DC1343D781F3D022B1D332B2EBE
:1041B000868C2C1DA22D2D03044E7C741E5E742C47
:1041C000272DCA1E1DA72F1D3F361270E3158D1E09
:1041D0006FBC0F1E7A69082D5D1A2D862E2DA12B1E
:1041E0002D35312D8D1E1DAB2F352C1E90AB052F7F
:1041F00084826B071F7270012B25F62D04322DCCA3
:104200003441141E6DC1091E6B64041DA00B2D05E5
:10421000073E8E712F1D07072D922E1D202B5E88C5
:10422000FA0719EC2D350C1D0C0B2E7F4C1D31B1EE
:1042300025DF2D99273A81D02DD7364D8D2F3D136F
:10424000052D22282DD72E6E8050382DB23019D34F
:104250001D3B031DA70515C31D820815192D682DCB
:104260006DFD2F2DB5361DAE382C047977737F0C7C
:1042700025C211E237787AC21D162A2DBC353D6B56
:104280001B25A31E86010C2D02081D1D142DB30C29
:104290001D1A044D932C1D82032D6C2B2D881B1190
:1042A000131E76F12439B821491DF4051DBB1B2DC1
:1042B000AA381DBB233DB82A4DA8272D8A2F3D7F44
:1042C0002A1DE32C152B75912D17302D9F1C5DD8C1
:1042D000383E7CFE334D14303D3E2C5E81262F3D12
:1042E0002C2941C62D4C042D53372D86231D991F93
:1042F00011DF3D781E3D82043D84032D85031DA002
:104300002E190D3D53072D4E03190E400486898842
:10431000803685302D231E1D2C041D02313D1005D5
:104320001C048F8B898A063D6C07455F4DF4392D3F
:104330005C291D9F2E2D92271DD0252F7577E40413
:104340002DB82D3E8D90091DA71D3D33302D123AFD
:104350002D37032DC82D3A8DBA2D60343D3B333DAA
:10436000123A390B4D201F4DEA2E5DE42E398F3D58
:10437000FA257E8250353D2135192415C23F909291
:1043800098312E85E9043D2C227DDC371DC2391D74
:1043900084031D00081269011DFF142D37083E7E9D
:1043A00016302D1D332DD5334DBE321D86064C07DC
:1043B0008E8F92949295FB0411981D16063DA221B2
:1043C0007DD33A1DC22D1D58053DBA2D2D890639C4
:1043D000583D75395D6C3A4D19371D69361DB71F4B
:1043E0001DC2361E8EA6121DD6061DEA3125DD7EA3
:1043F0007CF42939881DE4225E7FE4322D39251DA5
:104400005A364D8D3A3D71343DE7073D2D2A490F0F
:104410002D12371D95081DBB032D27063E7AE52179
:104420002DC32D2DB1241D39311D002F2DD50E3D4D
:104430000A292773767911CF2DB72C4F87877020E3
:104440003DDF252DAF043D442F1D12051D94081D91
:10445000DC0D3E7A11343E75F6233D21273D0707DA
:104460001D942731492DDD0539EB2DA12A3E8AD92E
:10447000211DDD332D27341F8684D61E1DA5051F63
:104480008D8D0C0B1DBC311D3F062DAE042D6335EB
:104490007E7A55342DF7303D84031D5F2B1E7163EA
:1044A0000C4E7BBC062D451F3D47263D093735C2C6
:1044B0003DF5091DDE051DBA0F2D03082D1C214DEC
:1044C000AF3C4D832F327EDE2E7145051E69A1174C
:1044D0001C046F70758E062DEB032DAE256DF71F36
:1044E0001D07242DBE091E904B101E9278092D2702
:1044F000062DBB363D0B208E7CC7284D56343DF62D
:10450000241E71090B2D2A0A2D23032DFE043D764E
:10451000225D44381D88231D8A3815C31F8F8E18CD
:10452000041D5A2D4DA50A2DEE281DD50A3D1A3D14
:104530001DAC091DB5033D67043D10371D2D094213
:104540007EE021DF4E7F34373D40392D92055DC737
:10455000042F8A88003D1DBF254D38294DB33A6E82
:1045600082E0333D942C1E713A034D9D033D8D3105
:104570002DAE376E8126392D5D374E887F2D1F89F0
:104580008843362DF8304DD5351DD6353D5C2C4D44
:1045900063375D37352E70920945C34DDB331DA857
:1045A0003C5D6D3A41E13D59383E89240F5A7E8B7E
:1045B000617D3D1F323DDD053D82357DE1083D9940
:1045C000294D93393D592F29584DA6051D1A353DC2
:1045D0008A061D5A0A3D43307D9C3D2D922F390A93
:1045E00029581D39033C066F7275737817304E8158
:1045F0000C031DBA371DE9302D0F341DEB381D504B
:104600000C179093C31DEA071E8CB63C4D0A362D3D
:104610008B2A4D2F0D35C31DDD081D41311D85032E
:104620003D3E063DA60A41984DEC364D9B291D3E68
:10463000231DBE285E8E99083DDC392D0C324D5C61
:10464000232D51072DD22F1D8F0929102DE2085D32
:10465000913A4E81E43A4D492935A719A415791D9F
:10466000D4382D033D2D7C393DBB374D112A7DEDCE
:104670002D5DB1042D04223D05224D8E062DEC0347
:104680003DAE093DC7081D05363D7A381D02311D76
:10469000203B1E8C1E321D91052D3A034D353841AD
:1046A000E22D5D244F79795C292D520F2D84031E54
:1046B00082C50A2D54393D29355E83C42C1DE5364B
:1046C0006D26064D450D5D4C3A5D563F4E801540BA
:1046D0007E7A8D3E3E765B0A3D3F0A2DB62D5D0DFE
:1046E0002D2DE33825C22DE036368FC21DD1033D76
:1046F0009D382DC7275D772E3D5E2C2DF1091DE9D4
:10470000072F6F6DB6321DE9073D70072D4B2D51F8
:10471000E22D4B2921953D65041F919153076E8D24
:10472000DE054D11393DF8253DF53A3D41311D007D
:10473000332D47052DF8112DE4085DC7274D1A23A9
:104740003D8A231DB9063E883C234DCC0B4DD52216
:104750004D663E4DFD324D93382D6F0A1D3F333D62
:1047600065073D50323DF2082D37104D470C2D4462
:104770003B2D062711462E85F8081D982E2F7C7F8D
:1047800005121D651B1DBD191C04958F8728192D49
:10479000A41D1C075757595F646CB31B1D1E1B1CBF
:1047A00004A1A4A3DD181E8E311C2F6C67C2101C3F
:1047B00005666E757FD3221C049FA1A8021B1D7F76
:1047C0001B2D671F1E5DA5191C065E636D7782EBAE
:1047D000221C24ACB1B5B3B1AAA195897B6C6155FB
:1047E0004C4541404249505C6876808F9AA0A9AB05
:1047F000A9A8A2989185DE1C1DF2211E59CA1F2C62
:104800001B7985909EAAB0BABDBDBBB2AB9F8F820B
:104810007366594F4845464A4F5B66EC221EA2F12B
:104820001D1EAD23221F887C1C1F1C16504D4A4C98
:104830005057616B7A86939FA9AFB1B3B0A8A0958A
:104840008604231C0C524C464342474F59637481E3
:10485000A1221C0CB0B8BAB8B6AFA59B8D7F743737
:104860001F2C065553565C64A62113A0A832101DB8
:10487000AFA9A19488796B5C4F433C39373C404BDE
:104880005964768593A0A9B2B4B4B2A94C2F796DBE
:10489000C61C224E641C0F798893A2AEB6BDBFBE63
:1048A000B9B1A89C8F88221D541A10065A5F666FF2
:1048B0007A4A13AAB4AF1C17BAB0A89B8C7C6C5D63
:1048C0004F453C38373A404A566472808B98B31B48
:1048D0001C0AA7A39D93887E71675EE5231D742142
:1048E0002C116B76838F9CA8AFB6B9B9B6B0A699D8
:1048F0008C7FBA2230044B494A64100486939E96FA
:104900001C07B5B3AEA79E926E221C056258545088
:10491000FC1F1C065F6B77828CD2221FA8A8981FF1
:1049200010118B8073685C534C4646474A535D694F
:104930007785FA1005B2B8BABA4C1C049B8F81F97E
:10494000202D611C2D731D2D101D1DFE1F1EAB87FC
:104950001E1C09877C6F61574E484581233C135AC2
:10496000677484919EAAB2B6B9B7B0A89E908374BA
:1049700066E523100D4A4F58667382909EA9B1B91F
:10498000BB1A21971E7311212C055553575F8C219B
:104990002C0898A0ABB1B5B2B162242C1078685A3B
:1049A0004E453D3B3B4048515F6D798988221DADA6
:1049B000241C09A49C90867C70686267131DE21B0E
:1049C0002D68232FACB368234C0AAEA397897A6C69
:1049D00061564E4F2314096B7784909BA2AAAFC2F5
:1049E0001D8D2111631DE51F1F4E4E6D1E326CAFD4
:1049F0003AA23E1C08887F70665A514A0A22140C5B
:104A00004D55606D7A8A98A6B0B8BE771006AFA6ED
:104A10009B8D7D961D75211C04585D65C02111E19B
:104A20001C20A7A9A9A79F988C7E7365574E454067
:104A30003E3F454C586473808F98A5ADB1B1B1AB82
:104A4000A1D1221C0775695E564F4D9A231C0C603C
:104A50006E7B8896A1A9B3B7B7B61E231F9587A111
:104A6000224261AF2B7E8A0C12B5181811AAA194AC
:104A700086786B5D5247444040464C5662591E8FC3
:104A8000A11E59D51DEA1E2D1620165DF41D4225C6
:104A900041321EAC10211C087F72675D56504EE4F7
:104AA0001F1E6330241C04909EA71E1F1EB4562296
:104AB0001C0793877B6E635AEB221804515962EDF1
:104AC0001DCD1F1C06A0A5A4A19D7F1F1988140839
:104AD000534E4847484D56442C118897A1AEB6BA5C
:104AE000BCBAB5ADA3968A7D706688221F565C3A23
:104AF000031DDF141FA2A71D1F1C0AA09A8E81761A
:104B0000695E524D5B212A4EEE1DD2221EA824263C
:104B10002805B0AAA199D41D8223117D2C075A65BE
:104B20006E7C8893D91D21191F9A8F32242DEB1E7C
:104B30002E5A6C1E1D4920140A9FA7A9AEADAAA02B
:104B40009A8F123C045C53498E251C145863707C68
:104B500085939CA1A8ABA7A7A19791867A7269C0FB
:104B6000251E5942211D93201C0798A3ABAEB2B25B
:104B700024261C09968A7E72665C544E7C241F553E
:104B80005E5C25178D98C22C08B0B1ACA59B8F83B5
:104B900056221C08514F50505860682F201DD31AC0
:104BA0001EA68F252C06988F86796EB9221D242685
:104BB00018055C677381EE2C0FB1BABCBFBDB8B0ED
:104BC000A69C8E80766A608E211D3C222D82232D2C
:104BD000B31F3404A5A097131C05554E4A47BA26A7
:104BE0003D3C221C0996A0A5AAA9A8A49A4F231C63
:104BF0000470645CEB221D48201C0565707B880CEA
:104C000026255E1004AFABA3661E7C7B1C2D4618C8
:104C10001C05747E84914A043DEB222C04968D8100
:104C20002003100848464341464C54B01D88221FBB
:104C30009CA1A6191E9BF7201E78FE231D49201E4D
:104C40005DF1211DA7212F9EA3EB222EA2B32319D4
:104C5000721804534F4D8A1C07616D7785929C171B
:104C6000241008B4B2ACA69D8F85C91C055C5652B1
:104C700050A8251E691E231DE3041C07A0A19F99AF
:104C8000938A62241DC5244F4E4D812319701C0444
:104C9000AEB2B8CF034C06ABA1948A7E70261E5DDF
:104CA00024262C077E88929CA1A749241C07979054
:104CB000867A7068D3261C0455575A62241C097DD5
:104CC00088929BA2A7AAAA622418048F847825162A
:104CD00053451C05565C656EE1241D95241DB423C7
:104CE0001C05ABA59E95F9201D2A212F6262BD1DD2
:104CF0001E8500042C06A2A8AAA6A4BE211DF72486
:104D00001C0957504C4A494F545DB6271E899021C3
:104D10001C06ABADADAAA266041C0480746E801F95
:104D20001C0661656A717A3C261E9ECC23100CAA73
:104D3000A7A3999085796F645954E11C0853576271
:104D40006D76849046051EA956221C049E948B2BDA
:104D5000251C0761595251525182231E731E231F75
:104D6000969C6D1E1DB1232F7D74FE1F1D18282CCF
:104D7000085F656F7A858F9BC3051C04B5B2ADDAF9
:104D8000251F847A2B251DDC051D4E1F1DCF231DDD
:104D9000E0281DE51F2DE41F1F7F77F4051C0A582E
:104DA000525454565E656F78991F2C0A9C9FA1A29D
:104DB0009E99928A7F38031E5805272C085C626BE7
:104DC000737E88917C281FB1AF3D221C07978E838C
:104DD0007A736B3D1E1C05686E737C60202C0599F0
:104DE0009FA3A3E3172C07887E72675E5533041CCC
:104DF0000549515A616D031D1F232FA5A668232D58
:104E00000B221D871E1D091E1D4D232E82D3221924
:104E1000D517ABA62B1F807417201C0459585AD9DC
:104E2000251E7B25264EA25D292404A2988EF42CF3
:104E30000759565452575C8A261E860B223C069D03
:104E40009B9A958C412121C72E5B81231E8287224C
:104E50001FABB040063C07A9A39A8D857AC9041EF2
:104E60005D2E202C04767F8549248C0AA6A5A39F5D
:104E70009A91898076C2292D8F2111FA2F9E9C50FC
:104E800027152C1E5AE5232F5155B6031C04838C7D
:104E90009797042EAEA9292F9389371F3F64634E3D
:104EA0001F1DB2232E97A61D1C049F979294282D98
:104EB000ED262C0E4A494B4E565E69747E8A959AB1
:104EC000A339031C049B948A19243D9A231D3B1E7D
:104ED0003C04757F87E0281C07A7A19F968E84FE5F
:104EE000231E61551E1D152015901C078C99A0A727
:104EF000ADAE63282DF12511C91E5DFF231F5C6136
:104F0000AD241D1D231E99B8071F9C98221E137DDA
:104F1000747C1D5A191E67682364058A939DA676C2
:104F20001F8F84D3221D2F203D75211D0A261DD8D9
:104F3000212C07A2A29F9D97908123251413595DD0
:104F4000E12D37231D75211D24261DE7071D36275A
:104F500015C21C0E55565A5F68727D86929DA5A992
:104F6000AFBA261D3D221E8B96242D941C1D471C76
:104F70001C05767D828D2A251D5A1D2E9022268E97
:104F8000600B2625F52D39031FA19BB9222DE523A2
:104F900011E1165E4415C22D9B0311E11E9D68238D
:104FA0004C077D736D6661600A221DA6253C0BA12E
:104FB000A6AAACA9A7A0989084052B117D1D0D2A47
:104FC0002C056C767E83D21E1D0A1E1D3C221F7A84
:104FD00073871E2C05615F6469682B1C05949EA273
:104FE000AB8A061D76292D9728114C211A1DA1196F
:104FF0001E7EDA291C069DA0A5A5A3742121C92E19
:1050000066E2041D7B201C0770777F878B92151C3E
:105010001D81231682F21D562A3F50509B271004F3
:105020007D8793E12005AEAEAEA9E119A31F6D67A0
:10503000CD236E6ED8211D03232B958C242DB42BEC
:105040001E5131281D83031D2E0519261D6F221C9C
:105050000799908980746F14091E5E1C1F1DBE2164
:105060001E8C342C1C05A2A1A29F48202F847C38C2
:105070001A259011951DE4232DDF282DFB041D39E1
:10508000072F7369D3222C045A5C624C2C1C0583B5
:105090008D919675211C0495908918243E6E1C1BD9
:1050A0001D98231C057C8790975F092EA82A251E32
:1050B0009053032DB3232E5C872225F42D95201DBC
:1050C00090291C04948F8563241E66052726585F4B
:1050D0001D972C1DED1E11E120048F8A81E11C0912
:1050E00059565355575E646E9C032F96A0A8291CF1
:1050F00004ADA9A22B253E8263243D25263F82874D
:1051000022223406999490867FF31DF8281C0857B4
:105110005A616A717C8519042FA0A2C7247B8D85F2
:10512000581D09221282E11DE0242C059F9F9996AB
:10513000C5201D031F1DF0211C096E747C818C94F9
:105140009BA04F271405A7A09E96DB35F4175A5C49
:10515000771D321B4C05828B9293942017837B130F
:105160001E660F1D1C046970754A242D5C213C07C6
:10517000A4A49F9D9690740A1F625DFE1B1D74255A
:105180001D242A1D062B117D3D4A241D82231D014D
:1051900004255F15C21DFD1F2D9420128BAF5E6E7E
:1051A00023261661771C04848D981A041EAD1A04F8
:1051B00015911D99041E717C182E68601C4D872264
:1051C0002DAD1B37857E4319ED1E5C392B1DE80381
:1051D0002C048F969AF1211C0496918756264D93A4
:1051E0001C1F676CC81B2DDF282D041F1C059794FE
:1051F0008C85EC222DD71D1D10211E7BC1212D2950
:10520000211EA27B241C04908C84A0221D832B2EA3
:105210005C4E081D40263DAE241D3A031E913C22E3
:105220001D2D1C2DCB1F2E6EFF23178D94C31D012A
:10523000041F9B9550234804736D63261D7B246DCA
:10524000B9221E99111D10047C756CFA2C075D5D46
:105250005F656771D9251E8F2C0C1F8D8791242DBA
:1052600080233E5E1D2711312F929B0C2E2DC305EE
:105270001F978F51272D821F1D081E1E7542212D3D
:10528000F91B2D49243DF0211E63CF072DE5271D75
:1052900023262F868CF2291D531E152D2D9C1B1D98
:1052A0008C211C0564686D7175294F8D94EB0B2D55
:1052B000A7211E7E891A1D40152DF0211DA2221D39
:1052C000D81935131D21031D76253D12291D7F0494
:1052D00011E14E8D9A1F2D9324255D1F6766E523EE
:1052E0001E76D1262291C81D4E1F2E91C8241E6CF9
:1052F0006E2210086065696E767D83631D07031C4E
:1053000004A3A0998F291C047D766CC3053D2B2531
:105310001D20272F82892F422DE61E1D74211D423C
:10532000251D73213DDE281D20031C04A3A7A76AA9
:105330002B1E9B3A0311651D30182DEF191D872F69
:105340003E8CCC171D15201D7A1C1D9B1F1C04654F
:105350006364B3232F767D93242D351F1C0497940B
:105360008E162042741A2804686B72252F9398AA0F
:10537000051E98D2222E8263242DC91B1D78202D54
:10538000372341AF1DEA221DEC2A3E6497043E6498
:10539000B3232D68231E98C5202E8CF7201DB41F23
:1053A0002DEA1E1DDE201C048B9198EC1A1D16247C
:1053B0001D4E271D87224E66DB054F767C94282DD7
:1053C000C71C1C048F8A8297044D95241268E11D26
:1053D000DD214D671F1D571D1D2A053B6461571EAA
:1053E0007B2A252D6E261D58063E9CAD241D4B1C88
:1053F0003DA71921E22E850B161C068F8D87857F10
:105400005003166945236165C81F7E83AD241DE7DF
:10541000271F908FBD1D3D0B222E65B6031D362321
:1054200010058890949BC92D3D221DFF231DCF1F81
:105430003D9F121D4D1F2DA6254C04999A99C025FC
:10544000166F5F2DC0252E67E9031E85E51F1DDE43
:105450001C1DC01D1D211F34056F6B6864C2277D94
:1054600082451E9A5C211D12252D3B221D9A172D67
:10547000CB1F31F91E9ECE1E1D44291D50272DC95C
:10548000041E6687221DEB222DC6201D95201D843B
:10549000351F8282701D1D8C193D00041DB7221D11
:1054A0002E311F9EA1C7282E9DA9291F867F062762
:1054B0002E6FD7151D1B232D031F25C21E8F1221F2
:1054C0001E7B821B2D78141E6C5E251F7F837B182C
:1054D0001F91949E121D721D1D83231C046765601D
:1054E0001D271C046C72793A031F9295B5231F9BEC
:1054F0009900241D8D1D1D25262B6D6C0D1F818986
:105500007A241E972E1C2D8F291E73F1291D1A082F
:105510001577159121C91E97BA261D70263F817BEC
:105520008E292D20031D791C1D3E223DBD191D64B1
:10553000201D43211D951C3E684D231C0483888F2C
:1055400082231DC51C35432DE21F1DAD242F656729
:10555000EC221DBD222DD04A3E883C1E1D95171DF4
:105560000A26417B1C0593999D9E39073D3D221ECD
:1055700084E9031E709B171D262617787FA91D330B
:105580001C1D341F2C048984819B231D572A3E6BCC
:105590009C231D44251D002C1DFF1F3E866F261DCC
:1055A000A82D3E66F0251D4D041DE527198B379B60
:1055B00098C23DDA2519A31DAE242D111D1DB72259
:1055C00025421D68271F6562032729571A7F8B2DE7
:1055D000CA04111A19272E74111D41631C058188F4
:1055E0008C8F0C2A1C0594908D8B70221DD8321D37
:1055F00045101273F81405868C9194D91D5B251DF6
:1056000016241E80DF28176D67F53D35041F777E51
:10561000421A1D78201DFC232D28254E6D21221CA9
:10562000097D83868E92969A9D4A242D23071C0419
:10563000847D794924476C6DC241C83C04918E88B1
:10564000C7201DAE2C15F61DFF231DCC233E8B035A
:105650001B1D49042DF9041D83031C0865676B6F2E
:1056600075798242251D95241D94243DD9252D70E0
:10567000162D65041E7CBE252DAF041DB0044E8A78
:1056800093281D4B042DFA2C1E7887221DAA051D78
:10569000CB1F15453D63242E6E87262D98043D1F94
:1056A000031C04929190981F1D6F221D6F261E727D
:1056B000D4152D9F331D8B1E3D3C1E1D63241DF7ED
:1056C000245E76CC232D30202DF6203DEC223DD0DB
:1056D0001A3DF7181D691A4E802A254DE6271DA38D
:1056E000215D2A252DEB1E2D87222E8FDC1C3E8D61
:1056F000D5214DE0241C046B6E735A1D2D4F172DC0
:10570000801F1681101D67272D2E242D41251D6E0B
:10571000261D3F061DC7201D492C2DEA034E6E4550
:10572000051C0481878DE0301F9898DA2919D31D54
:105730006F2A1C085D5A595C5E6469262E1D1E2B5B
:105740001D9C031C0498948D1C2F1D682F1B6060EA
:10575000BA1D362B2D13092EA3330C1F9F99E00C75
:105760002D97081D4B343D570A1E8E70321DC730D1
:105770001D242E2D39332F6F66BD0A1DEF0A2E6DA5
:1057800097286D612415A54E70D4211D74291F81A1
:10579000898F051EA2390B2EA3772D3C0489827AAE
:1057A00095241E67761D1D15291F81859121156180
:1057B00019293F89843A1B2D49222D35503D3E1F22
:1057C0002E87511F1D821F1D20272D87032E6582C6
:1057D000081D41321DB3281FA4A1FC281C058C857F
:1057E0007D774E283C0461605F440A1DE32829A7A9
:1057F0002DF4251D2D291DB53E15921680C22D179D
:10580000283D4824367DDC3D3D261F7173C4253E6E
:1058100084DA4A3DF3181DF4132DB31A2D50222FAC
:105820009B9964271E8EAF1F2DD91D3D03131D7537
:10583000214D83422DFA151DBF4F5E76FE3D4E7CF5
:10584000BD481D0F464D1A1C3DAA211DBD222E7EAE
:10585000AC291D981C2D0D264F8288901D2C048884
:10586000817E1A2C1D992311FC1E7224071DCB2446
:105870001D9A1F2D5A252DBB2A2D08072D46051DC3
:1058800018243F9B9C26061DAF041D7B201DF73B63
:105890002D27251D50271DF22D2D2C242D49043E8A
:1058A00069F3051D79281D5B291D9C032294763D13
:1058B000AE242DA62D59BA1D95042D79202E922C9B
:1058C000201DEE522E7979411D381E1F8B8E022B22
:1058D0002D17081A95A14D9D221E6D4F1F3E72D99E
:1058E000251D5E243685111D7B1C3D061B2270196B
:1058F0005C047B7E81FE171E8F4A201D32202D29DD
:10590000502D204A1F7F8020241D312C2F94942954
:10591000213DC2254D21033D0C223D8E1D1E829C42
:105920001E3DDF203E6834231DEF061E8E580A4EB2
:10593000982E051D882A2DAE201D1C2311642E8251
:1059400049422D061E1D92201D631C3D621C1DE454
:10595000042D621C3E82FA041D00171DF21D3D63DA
:10596000284D991B1DEC1E3D451D2D8B221D7E4291
:105970003D60462D221A3DE4233F9794CF031D211D
:10598000031DD5061DA9053DDF201D8E1D1D7F238E
:105990001D9D4F1D9F262D16282DD1261678161DCC
:1059A000231E3E9056265E9006271DBA521E77048F
:1059B000071C0482898D00041DBE211F8F8D4E1F80
:1059C0004DDE204D52223D01203DE01F4E7B861EC4
:1059D000226F931D1704114A2294331C0692908B58
:1059E000898553232DB81E1DA6192E75C01D2D7F28
:1059F0004F1D5A184D211E2DA0261F6E70C5054D36
:105A00007A201D1A463284952D5D1D4D8D211DD0A5
:105A1000273D16213F9193511F1DCE4C2E81C91752
:105A20003F898D922839A61E8DE30445603E677A32
:105A3000051D35041D3C222D1E1F1DCD231DCB171A
:105A40002DD7214E73661F35162D38272D8E263EF5
:105A50007ADF201E8048042C048F939534031E9017
:105A6000F928152C455F466DF62DE64B2D58502D27
:105A7000D8191D041E2D381E3E7B662715F33D5197
:105A80002735AC1D974D2D521A3D651B4D35533EA4
:105A9000865E214E78551A1DC93819401DD31E1D2A
:105AA0003E3F1DC22031E12D5C1D1D0C222D86279D
:105AB000114E1D2C4A3D5C212D8E4C2D0F512DABCE
:105AC000205D38265D5F053DD4222DE61F1D970819
:105AD0002E844A242DAC205E83C3551DD2402D7FD9
