:020000040800F2
:1000000030070020290200080F1300089D12000885
:100010000D1300081F0400088514000800000000EC
:1000200000000000000000000000000013130008A2
:10003000ED0400080000000011130008151300086B
:10004000430200084302000843020008430200087C
:10005000430200084302000843020008430200086C
:10006000430200084302000843020008430200085C
:10007000430200084302000843020008430200084C
:10008000430200082104000843020008430200085C
:10009000430200084302000843020008430200082C
:1000A000430200084302000843020008430200081C
:1000B000430200084302000843020008430200080C
:1000C00043020008430200084302000843020008FC
:1000D00043020008430200084302000843020008EC
:1000E00043020008430200084302000843020008DC
:1000F00043020008430200084302000843020008CC
:1001000043020008430200084302000843020008BB
:1001100043020008430200084302000843020008AB
:10012000430200084302000843020008430200089B
:100130004302000800000000000000004302000825
:10014000430200084302000843020008430200087B
:10015000430200084302000843020008430200086B
:10016000430200084302000843020008430200085B
:1001700043020008430200080000000000000000E5
:10018000430200084302000800F002F800F03CF8C7
:100190000AA090E8000C82448344AAF10107DA45E2
:1001A00001D100F031F8AFF2090EBAE80F0013F0F8
:1001B000010F18BFFB1A43F001031847E0130000BA
:1001C00000140000103A24BF78C878C1FAD852074A
:1001D00024BF30C830C144BF04680C6070470000C1
:1001E0000023002400250026103A28BF78C1FBD840
:1001F000520728BF30C148BF0B6070471FB501F0E0
:10020000BBF91FBD10B510BD00F0CFF81146FFF7C8
:10021000F5FF01F049F900F0EDF803B4FFF7F2FF44
:1002200003BC00F0F5F80000094880470948004782
:10023000FEE7FEE7FEE7FEE7FEE7FEE7FEE7FEE796
:10024000FEE7FEE704480549054A064B70470000F3
:10025000AD1300088901000830010020300700209C
:10026000300300203003002053EA020C00F06980C4
:100270002DE9F04B4FF00006002B1FBFB3FA83F5BA
:1002800003FA05F424FA05F65E4012BF1643B2FAEB
:1002900082F502FA05F4C5F120051EBF22FA05FC1D
:1002A00044EA0C04203556EA044C4FEA144418BFC3
:1002B000641C4FF000084FF00009904271EB030CF2
:1002C00039D3002919BFB1FA81F701FA07F6B0FA5C
:1002D00080F700FA07F6C7F120071EBF20FA07FCD7
:1002E00046EA0C062037B6FBF4FCA7EB0507103FE7
:1002F00007F01F0BCBF120060CFA0BFB2CFA06F6CD
:1003000044BFB3460026202FA4BF5E464FF0000B2B
:100310005BEA060C08BF4FF0010B19EB0B09ABFBB6
:10032000027C48EB0608C01B06FB02CC0BFB03CC8F
:1003300071EB0C01C1E70B46024641464846BDE859
:10034000F08B13B54FF000004FF00001AFF30080C9
:10035000BDE81C4070474FF0000200B513469446BC
:100360009646203922BFA0E80C50A0E80C50B1F10D
:100370002001BFF4F7AF090728BFA0E80C5048BF21
:100380000CC05DF804EB890028BF40F8042B08BFBF
:10039000704748BF20F8022B11F0804F18BF00F8BB
:1003A000012B7047704770477047754600F02CF876
:1003B000AE4605006946534620F00700854618B052
:1003C00020B5FFF73FFFBDE820404FF000064FF09B
:1003D00000074FF000084FF0000B21F00701AC467A
:1003E000ACE8C009ACE8C009ACE8C009ACE8C00999
:1003F0008D46704710B50446AFF300802046BDE837
:100400001040FFF70ABF000000487047CC000020F2
:1004100001491820ABBEFEE7260002007047FEE748
:10042000014800F0EFB80000240000200168182304
:10043000CAB2103AB2FBF3F2054B6FF30901032A7B
:100440009B5CC36500D9091D8165084670470000A3
:100450008215000810B5014600208B698A6A4FF0AA
:10046000C07453B1B3F5005F15D072B1012A0CD03E
:10047000022A0AD0032A09D104E01AB1012A06D0BF
:10048000022A03D1C96AC90100D5012010BDC96A79
:10049000A142FAD010BD002AF7D0012AF2D0022AD8
:1004A000F3D0032AF3D010BD10B50F4C0D484FF414
:1004B000806120604FF0606060604020A06000209C
:1004C000C4E9030189106061C4E906014FF44031B9
:1004D000C4E90810204600F065F9A4F11400C460D6
:1004E000A06310BDA060024024000020704772B6D7
:1004F000FEE770B54379012B1CD00126467102231B
:10050000037105682B6802F0100440F6FE72A240E9
:100510009343D1E900210A43A2401A432A600168AB
:100520000A68C023A3409A430A6006710021417102
:10053000084670BD022070BD70B5040003D020795C
:10054000002510B105E0012070BD6571204600F066
:1005500007F802202071256101202071002070BD64
:1005600070B586B0054614216846FFF7F4FE2049B1
:100570002868884239D11F480026016841F000519F
:100580000160006800F0005005901A4810380168BA
:1005900041F0010101600068694600F0010005902A
:1005A000202000900320CDE90106134800F076F9E1
:1005B000134C124820604FF0606060604020C4E936
:1005C000020600012061400060618000A0614011CE
:1005D000E0614FF44030C4E90806204600F0E2F83C
:1005E00008B1FFF784FFEC60A56306B070BD0000A2
:1005F000007400404038024000000240A060024009
:10060000240000202DE9F84304464FF00009CDF8FE
:10061000009063484FF41651A56D0068B0FBF1F7E8
:100620002E6894F85C10082000FA01F131420FD0D6
:1006300021680A6852070BD50A6822F004020A6092
:1006400094F85C108840A860606D40F0010060651F
:1006500094F85C104FF0010808FA01F0304208D01D
:1006600021684969090604D5A860606D40F0020060
:10067000606594F85C1004208840304208D02168FE
:100680000968890704D5A860606D40F004006065C2
:1006900094F85C1010208840304218D02168096816
:1006A000090714D5A86020680168490304D50068CB
:1006B000000308D5A16C07E00168C90503D40168EF
:1006C00021F008010160216C09B12046884794F8A7
:1006D0005C1020208840304231D021680968C9066A
:1006E0002DD5A86094F8350005282068016806D04B
:1006F000490347D5006800031DD4616C1CE021F05C
:10070000160101602068416921F080014161206C7F
:1007100008B9A06C20B12068016821F008010160CF
:1007200094F85C103F208840A86084F8358084F8F5
:100730003490216D1FE0E16B09B120468847606D60
:1007400000282BD0606DC00714D0052084F8350038
:100750002068016821F0010101600098401C0090B0
:10076000B84203D820680068C007F6D184F8358005
:1007700084F83490E16C002910D001B02046BDE827
:10078000F04308470168C905D5D4016821F010017C
:10079000016084F8358084F83490CCE7BDE8F883B4
:1007A0000C0000202DE9F041044600F07DF90646DA
:1007B0005CB1022084F83500002584F834502068AC
:1007C000016821F0010101600DE00120BDE8F08128
:1007D00000F06AF9801B052805D9202060650320F8
:1007E00084F83500F2E720680068C007F0D122687D
:1007F000116820480140D4E901031843D4E90336C5
:100800003343184363691843A3691843E3691843E2
:10081000236A18430843616A042903D1D4E90B13FE
:1008200019430843106020684069666A20F0070198
:1008300030460E43012704280CD1A06A0643E06A23
:1008400040B12046FFF706FE20B14020606584F8E5
:100850003570BAE7206846612046FFF7E7FD94F857
:100860005C203F2191408160656584F835700020EF
:10087000ACE700003F8010F070B5044600F014F9BA
:100880000546601C02D004480078044400F00CF9CE
:10089000401BA042FAD370BD000000202DE9F84FA4
:1008A000DFF8BCA10022012503264FF00F090AF151
:1008B000040BAAF1040E00BF0B6805FA02F42340F2
:1008C000A34270D10F7907F00307012F01D0022F47
:1008D00016D187684FEA420806FA08FC27EA0C0797
:1008E000D1F80CC00CFA08FC4CEA070CC0F808C0A0
:1008F0004768A7430C79C4F3001494403C43446018
:100900000C79E443A4070AD0C4684FEA420C06FA03
:100910000CF7BC438F6807FA0CF72743C7600C79C4
:1009200004F00304022C12D1D40800EB840CDCF890
:1009300020405707FF0E09FA07F824EA0804D1F807
:10094000108008FA07F848EA0408CCF82080046808
:100950004FEA420C06FA0CF7BC430F7907F0030785
:1009600007FA0CF7274307604C6814F4403F70D037
:100970003C4C276847F480472760246822F003072F
:1009800004F480440094384C07EB040CDCF808486D
:1009900097074FEA177809FA08F7BC43334FB84274
:1009A00002D1002724E054E0314FB84201D10127A1
:1009B0001EE0304FB84201D1022719E02E4FB84255
:1009C00001D1032714E02D4FB84201D104270FE0D5
:1009D0002B4FB84201D105270AE02A4FB84201D176
:1009E000062705E0284FB84201D1072700E0082775
:1009F00007FA08F72743CCF80878DAF8004057469A
:100A0000D1F804C09C435FEACC2C00D51C433C6069
:100A1000DBF800405F46D1F804C09C435FEA8C2CB1
:100A200000D51C433C60DEF800407746D1F804C096
:100A30009C435FEA8C3C00D51C433C60084F083F58
:100A40003C68D1F804C09C435FEACC3C00D51C4311
:100A50003C60521C102AFFF42FAFBDE8F88F000055
:100A6000083C014044380240003001400000024090
:100A70000004024000080240000C02400010024046
:100A80000014024000180240001C0240426921EAA2
:100A900002030A4043EA0241816170470AB1816161
:100AA00070470904FBE700000148806870470000B8
:100AB000000000200248816802781144816070477C
:100AC000000000200B4810B5016841F4007101607E
:100AD000016841F480610160016841F48071016046
:100AE000032000F06FF80F2000F006F800F024F863
:100AF000002010BD003C024070B50D4D04464FF47F
:100B00007A712878B1FBF0F00A490968B1FBF0F07E
:100B100000F0EAFA48B9102C07D200222146501EF4
:100B200000F030F800206C6070BD012070BD000046
:100B3000000000200C0000200A4808B5016841F4BC
:100B400080410160006800F4804000900548001F6B
:100B5000016841F080510160006800F08050009011
:100B600008BD000044380240002809DB00F01F02E5
:100B7000012191404009800000F1E020C0F80011FF
:100B800070470000F0B40E4B1B680C46C3F3022301
:100B9000C3F10705042D00D90425191D072901D229
:100BA000002300E0DB1E012606FA05F1491E214064
:100BB00099409E40761E16403143F0BC00F063BC65
:100BC0000CED00E0064900F0070208684FF6FF034D
:100BD000184040EA0220034A1043086070470000B2
:100BE0000CED00E00000FA052DE9F0470E46050087
:100BF00065D0DFF81481D8F80000F7B200F00700E4
:100C0000B04207D288F80070D8F8000000F0070062
:100C1000B04254D128683D4C810712D5400703D516
:100C2000206840F4E05020602878000703D5206851
:100C300040F4604020602068A96820F0F00008437C
:100C400020602878C0072DD030496868083901280D
:100C500012D0022813D0032811D00968890700296F
:100C60002DDA216821F0030101432160FFF71CFF09
:100C7000814641F2883A0EE009688903EFE7096886
:100C80008901ECE7FFF710FFA0EB0901514502D9FC
:100C90000320BDE8F0872068696800F00C00B0EB25
:100CA000810FEFD1D8F80010404601F00701B142A2
:100CB00007D90770006800F00700B04201D001209A
:100CC000E7E72878400705D52068E96820F4E05078
:100CD000084320602878000706D52068296920F499
:100CE000604040EAC100206000F018F82168084A1E
:100CF000C1F30311515CC84006490860064800680A
:100D0000FFF7FAFE0020C4E7003C0240083802402A
:100D10008A1500080C00002004000020154810B5BA
:100D2000006810F00C02144813D04110042A0FD0B0
:100D3000082A0ED10F4C241F2268236802F03F02BC
:100D40005B0207D52068C0F38810A0FB010106E014
:100D5000084610BD2168C1F38811A1FB00010023E2
:100D6000FFF782FA2168C1F30141491C4900B0FB39
:100D7000F1F010BD083802400024F4002DE9F84FCE
:100D800004006ED02078DFF84C93C007A9F1040569
:100D90004AD009F104000168C1F38101012908D09A
:100DA0000068C0F3810002280AD1D9F8000040028F
:100DB00006D52868800337D560680028E1D033E085
:100DC0006068B0F5803F10D0B0F5A02F286810D033
:100DD00020F480302860286820F480202860606833
:100DE000A8B1FFF761FE06460DE0286840F48030A8
:100DF000F4E740F480202860F7E700BFFFF754FED7
:100E0000801B642873D828688003F7D50CE0FFF7AF
:100E10004BFE064605E000BFFFF746FE801B642838
:100E2000F0D828688003F7D42078DFF8AC828007F8
:100E30004FF0000A3ED5A748001D016811F00C0FC5
:100E400008D00068C0F3810002280BD1D9F8000057
:100E5000400207D42868800716D5E068012800D131
:100E600012E033E1E068B8B10120C8F80000FFF7F4
:100E70001BFE064605E000BFFFF716FE801B02289A
:100E8000C0D828688007F7D52868216920F0F800C5
:100E900040EAC10028600DE0C8F800A0FFF704FE9A
:100EA000064604E0FFF700FE801B02281FD82868D2
:100EB0008007F7D42078000722D5864F87486169DC
:100EC000703771B101210160FFF7EEFD064604E0C5
:100ED000FFF7EAFD801B022809D838688007F7D59C
:100EE0000EE0C0F800A0FFF7DFFD064605E082E057
:100EF000FFF7DAFD801B02287DD838688007F7D419
:100F00002078400768D5DFF8CCB100270BF13C0B07
:100F1000DBF80000C0000BD4DBF8001041F080517A
:100F2000CBF80010DBF80000012700F080500090A3
:100F30006B4E3068C00510D4306840F4807030606B
:100F4000FFF7B2FD009005E0FFF7AEFD0099401AF3
:100F5000022850D83068C005F6D55E4EA0686C36C1
:100F600001280FD00528306810D020F00100306033
:100F7000306820F004003060A068B8B1FFF794FD3D
:100F800000900FE0306840F00100F4E740F004000A
:100F90003060F7E7FFF788FD0099411A41F2883089
:100FA000814266D830688007F4D50EE0FFF77CFDFB
:100FB000009007E0FFF778FD0099411A41F2883070
:100FC000814256D830688007F4D42FB1DBF8001086
:100FD00021F08051CBF80010A069C8B33D49091D2C
:100FE0000968C1F3810102294AD00228504607D07E
:100FF000C8F8600000E03CE0FFF756FD04463BE027
:101000004746C8F86000FFF74FFD064605E000BF01
:10101000FFF74AFD801B02282BD828688001F7D4EF
:10102000D4E907010843A16A2E4A490802EB0141AD
:10103000626A41EA8211084394F82C1040EA016187
:10104000C9F8001001203866FFF72EFD044606E0BF
:101050003EE000BFFFF728FD001B022809D82868E2
:101060008001F7D534E000BFFFF71EFD001B02280A
:1010700002D90320BDE8F88F28688001F4D427E066
:101080000128F7D0D9F80000E26900F4800191420C
:101090001CD1226A00F03F01914217D147F6C0717E
:1010A000626A0140B1EB821F10D1A26A4FF0FF3398
:1010B00000F4403103EB5202B1EB024F06D194F839
:1010C0002C1000F07060B0EB016F01D00120D1E76F
:1010D0000020CFE70438024000004742800E47421C
:1010E000007000400000FFFF10B5401EB0F1807F8F
:1010F00001D3012010BD4FF0E02460610F21601783
:1011000000F0C1F90020A06107202061002010BD7F
:1011100070B590F83C20012A32D0012480F83C4080
:10112000022280F83D2003685A689D6822F070060C
:101130000A6832435A60134B02689A4214D0B2F1E3
:10114000804F11D0104B9A420ED0104B9A420BD0C8
:101150000F4B9A4208D00F4B9A4205D00E4B9A4241
:1011600002D00E4B9A4204D1496825F080031943FE
:10117000916080F83D40002180F83C10084670BD29
:10118000022070BD00000140000400400008004043
:10119000000C0040000401400040014000180040E5
:1011A00010B5040003D094F83D0010B107E0012011
:1011B00010BD002084F83C00204600F01FF80220FB
:1011C00084F83D00211D206800F0F8F8012084F823
:1011D000460084F83E0084F83F0084F8400084F81C
:1011E000410084F8420084F8430084F8440084F805
:1011F000450084F83D00002010BD000008B50068DF
:101200000649884208D10648016841F02001016082
:10121000006800F02000009008BD000000140040AD
:101220004038024090F83D10012901D0012070475C
:10123000022180F83D1000681149884214D0B0F1B5
:10124000804F11D00F4988420ED00F4988420BD0F1
:101250000E49884208D00E49884205D00D4988427F
:1012600002D00D49884204D1816801F007010629A6
:1012700003D0016841F001010160002070470000C7
:10128000000001400004004000080040000C004045
:10129000000401400040014000180040FEE700004B
:1012A00030B587B014216846FFF755F8154800247B
:1012B000016841F080010160016801F08001059141
:1012C000016841F001010160016801F0010105912F
:1012D000016841F00201016000680B4D00F002005E
:1012E0000590002207212846FFF7D8FB0720009031
:1012F0000120CDE90104694628460394FFF7CEFAA0
:1013000007B030BD3038024000040240FEE7FEE77F
:1013100070477047FFF7CEBB30B593B030216846B9
:10132000FFF719F814210CA8FFF715F81D48002540
:10133000016841F080510160006800F08050119018
:101340001948016841F4804101600068022400F4FA
:101350008040119001200390102004900094069486
:101360000820CDE90750A820CDE9090405200B90FD
:101370006846FFF703FD08B172B6FEE70CA90F201F
:1013800081E831004FF4A0500F904FF4805010903E
:1013900005210CA8FFF728FC002801D072B6FEE753
:1013A00013B030BD40380240007000400248016870
:1013B00041F470010160704788ED00E0F0B502680B
:1013C000254C264D264E274F274B4FF0804CA042F0
:1013D00009D0604507D0A84205D0B04203D0B8423A
:1013E00001D0984204D122F0700E4A6842EA0E02FF
:1013F000A0421BD0604519D0A84217D0B04215D0EA
:10140000B84213D0984211D0184DA8420ED0184DB2
:10141000A8420BD0174DA84208D0174DA84205D0BE
:10142000164DA84202D0164DA84203D122F44075B1
:10143000CA682A434D6922F080022A4302608A6802
:10144000C2620A688262A04201D0984201D1096951
:10145000016301214161F0BD000001400004004032
:1014600000080040000C0040000401400040014022
:10147000004401400048014000180040001C0040AA
:1014800000200040FEE70907090E002804DB00F1F8
:10149000E02080F80014704700F00F0000F1E02019
:1014A00080F8141D704700001CB5FFF70BFBFFF719
:1014B00033FFFFF7F5FE2B480024016841F40011CB
:1014C00001600068224600F40010009021461120BF
:1014D000FFF758FB1120FFF747FB244900942248EF
:1014E000019408600846FFF727F808B172B6FEE7D6
:1014F0001420CDE90004102269461C48FEF7F9FFCC
:1015000008B172B6FEE71948009474301849019486
:1015100001606321C0E901144B21C1608021816118
:10152000FFF73EFE08B172B6FEE72020CDE90004C9
:101530000E4869467430FFF7EBFD08B172B6FEE75E
:10154000FEF7B2FF09487430FFF76CFE094C4FF408
:10155000FA7507212046FFF799FA2846FFF78CF91C
:10156000F7E700003038024000740040100000200F
:1015700000140040000402404FF04070E1EE100AF9
:10158000704700061016000610160000000000004C
:10159000000001020304060708090000BC1500084A
:1015A0000000002010000000C4010008CC15000855
:1015B0001000002020070000E001000801000000EA
:0C15C00010000000000000000024F400F7
:040000050800018965
:00000001FF
